:020000040800F2
:10000000C0A40020390200089B3C00080535000808
:10001000DD3A0008C12400089374000800000000C5
:1000200000000000000000000000000079680008E7
:10003000332C00080000000019490008D56A0008A8
:10004000530200085302000853020008C14C000884
:10005000530200085302000853020008352C000820
:10006000530200085302000853020008530200081C
:100070005302000853020008530200083D290008FB
:1000800053020008530200085302000853020008FC
:1000900053020008530200085302000853020008EC
:1000A00053020008530200085302000853020008DC
:1000B000496B000853020008A96B000853020008AE
:1000C00053020008530200085302000853020008BC
:1000D0005302000801700008617100085302000813
:1000E000530200085302000853020008530200089C
:1000F000530200085302000853020008530200088C
:1001000053020008F9500008530200085302000887
:10011000530200085302000853020008530200086B
:10012000530200085302000853020008530200085B
:1001300000F002F800F070F80AA090E8000C824489
:100140008344AAF10107DA4501D100F065F8AFF266
:10015000090EBAE80F0013F0010F18BFFB1A43F0A5
:100160000103184748190100681901000A444FF0BB
:10017000000C10F8013B13F0070408BF10F8014B06
:100180001D1108BF10F8015B641E05D010F8016B4B
:10019000641E01F8016BF9D113F0080F1EBF10F8AF
:1001A000014BAD1C0C1B09D16D1E58BF01F801CBD2
:1001B000FAD505E014F8016B01F8016B6D1EF9D555
:1001C0009142D6D37047000000230024002500266A
:1001D000103A28BF78C1FBD8520728BF30C148BFAA
:1001E0000B60704766290BF04C81642900F0CE80CB
:1001F000782900F00781732900F08B850020704773
:100200001FB500F0BDFD04000020002109F0D2FF61
:10021000E0601FBD10B510BD00F0B2FE1146FFF743
:10022000EFFF09F03DF900F0D0FE03B4FFF7F2FF55
:1002300003BC07F06CF900000948804709480047F3
:10024000FEE7FEE7FEE7FEE7FEE7FEE7FEE7FEE786
:10025000FEE7FEE704480549054A064B70470000E3
:10026000E96A000831010008C09E0020C0A40020F7
:10027000C0A00020C0A00020704710B54C1084EA38
:10028000530404D54042C1F1000138BF491E1B424E
:1002900004D55242C3F1000338BF5B1E00F022FABE
:1002A00014F0804F04D04042C1F1000138BF491E14
:1002B00014F0004F04D05242C3F1000338BF5B1E5C
:1002C00010BD00000FB41CB5074B06AA7B4469465D
:1002D0000090059800F0F3FC0020694600F002FD54
:1002E0001CBC5DF814FB0000150A000070B5044644
:1002F00085690068C10601D5302600E02026C007C8
:1003000007D070BDD4E9012130469047206A401CD7
:1003100020626D1EF6D570BD70B504468569007803
:10032000C00707D170BDD4E9012120209047206A81
:10033000401C20626D1EF6D570BD70B50C4605469A
:10034000012A05D02878800600D5EA69002302E05A
:10035000012305E05B1C934202D2E05C0028F9D146
:10036000A869E618C01AA861286A184428622846B5
:10037000FFF7BCFF04E0D5E9012114F8010B904719
:10038000B442F8D32846FFF7C7FF70BD2DE9F0410E
:100390000646002410687529314616A510D0AFF323
:1003A0000080002802DA404213A507E031688A077E
:1003B00001D512A502E0490704D511A5012401E0E9
:1003C000AFF3008000210A2206F1240709E0B0FB08
:1003D000F2FCB0FBF2F302FB1C00303078541846FC
:1003E000491C0028F3D123462A463046BDE8F04197
:1003F00000F0FAB9000000002D0000002B00000002
:100400002000000070B504460D4621461068AFF389
:1004100000802188090502D50F4A7A4402E00E4A7D
:100420007A440E32002104F1240305E000F00F06A7
:100430000009965D5E54491C0028F7D120780023FE
:10044000000704D5702D02D009B1022311322046D5
:10045000BDE8704000F0C8B97A1501002DE9F05FE1
:10046000894604464FF0000ADFF824B1FB44C0F887
:1004700020A02046E168884700287DD0252806D0A6
:10048000D4E901219047206A401C2062F1E7002551
:100490005F462046E16888472028064607DB312E64
:1004A00005D2B81910F8200C08B10543F1E7A807E8
:1004B00001D525F00405C4F81CA00027C4F818A035
:1004C0002A2E09D0304607F01BF838B304EB870812
:1004D000303EC8F8186019E059F8041B204604EBB8
:1004E00087029161E1688847012F064618D1E069CB
:1004F000002820DA25F020051DE0D8F8180000EBD0
:10050000800006EB40003038C8F818002046E1684B
:100510008847064606F0F4FF0028EED1012F0AD0E6
:100520002E2E08D12046E16888477F1C0646022F00
:1005300045F02005C4DBA069002803DA404245F0FD
:100540000105A061E80701D025F01005A6B1A6F1CC
:100550004100192802D8203645F400654A46314644
:10056000204625604D46FFF73DFE60B1012807D0CB
:10057000ED1D25F0070000E007E000F1080978E72D
:1005800005F1040975E730467AE7206ABDE8F09F77
:100590005015010010B5431C02E010F8011B71B1A9
:1005A0008107FAD14FF0013202C88C1A8C4314EA49
:1005B000C211F9D0C01A0A0603D0C01E10BDC01A5D
:1005C00010BD0A0401D0801E10BD0902FCD0401EDF
:1005D00010BD032A40F2308010F0030C00F01580AB
:1005E00011F8013BBCF1020F624498BF11F801CB36
:1005F00000F8013B38BF11F8013BA2F1040298BF9B
:1006000000F801CB38BF00F8013B11F0030300F004
:100610008483083AC0F0088051F8043B083A51F846
:1006200004CBA0E80810F5E7121D5CBF51F8043BAD
:1006300040F8043BAFF30080D20724BF11F8013B20
:1006400011F801CB48BF11F8012B24BF00F8013B82
:1006500000F801CB48BF00F8012B70474FF0013C78
:1006600050F8042B51F8043B9A4221D1A2EB0C0321
:10067000934313EACC1317D150F8042B51F8043BE1
:100680009A4215D1A2EB0C03934313EACC130BD17E
:1006900050F8042B51F8043B9A4209D1A2EB0C0309
:1006A000934313EACC13DBD04FF00000704700BF38
:1006B000D01A01BAB1FA81F101F0180122FA01F061
:1006C000CB40C1F12001DBB2C0B2C01A2CFA01F359
:1006D000D11A914311EAC311E6D1704770477047B0
:1006E0007047704753EA020C00F069802DE9F04B27
:1006F0004FF00006002B1FBFB3FA83F503FA05F491
:1007000024FA05F65E4012BF1643B2FA82F502FAE9
:1007100005F4C5F120051EBF22FA05FC44EA0C04CD
:10072000203556EA044C4FEA144418BF641C4FF0BD
:1007300000084FF00009904271EB030C39D30029F7
:1007400019BFB1FA81F701FA07F6B0FA80F700FA9B
:1007500007F6C7F120071EBF20FA07FC46EA0C0681
:100760002037B6FBF4FCA7EB0507103F07F01F0B83
:10077000CBF120060CFA0BFB2CFA06F644BFB3466D
:100780000026202FA4BF5E464FF0000B5BEA060C4C
:1007900008BF4FF0010B19EB0B09ABFB027C48EBD8
:1007A0000608C01B06FB02CC0BFB03CC71EB0C0153
:1007B000C1E70B46024641464846BDE8F08B13B5FB
:1007C0004FF000004FF00001AFF30080BDE81C4087
:1007D000704710B500F0D8FA006810BD10B5044697
:1007E00000F0D2FA046010BD2DE9F0470D4699469D
:1007F0009246044600F124080168880604D5E069A1
:1008000021F01001216000E00120A84201DD471B1A
:1008100000E00027A1697A1902EB0900081AA0611B
:100820002078C00602D42046FFF760FD002608E0CD
:10083000D4E901211AF806009047206A401C761C72
:1008400020624E45F4DB2078C0060AD52046FFF72B
:100850004DFD06E0D4E9012130209047206A401C7C
:100860002062381EA7F10107F4DC07E0D4E901217A
:1008700018F805009047206A401C2062281EA5F148
:100880000105F3DC2046FFF747FD2078000602D57E
:100890000220BDE8F0870120FBE770472DE9FF4FFC
:1008A0000C461E464FF0FF378BB0D2E90001DDF851
:1008B00060800A908A46C1F30A5505B93D46002179
:1008C00008464FF00000BAF1000F00F4400005DACE
:1008D00000EB80004FF4400101EA50004FEA9059CC
:1008E000B9F1010F00DDB9460A9850EA4A000ED06E
:1008F00044F61050A5F2FF3545432F14B8F1000F10
:100900001ED07542291E1EDDC9F100021CE0B8F19F
:10091000010F4FF0000001D0302103E0F24305E069
:100920002154401CB042FBDB304600220021215400
:100930000B99C1F80880C1E900200FB0BDE8F08F25
:10094000BD1B6D1CDEE74A4600DA694206A800F0CE
:10095000A5FA06AB93E8070003AB83E8070050460F
:100960000A9900F03BFB8DE80700A0F500501F3806
:1009700000900398002D09DD42F21F014A46084409
:1009800003A90390684600F09AFD08E0A0F5005026
:100990004A461F3803A90390684600F0A4FD8DE87D
:1009A00007000004000C03D04FF0FF30410800E0C6
:1009B0001046B8F1000F03D00022009215461EE049
:1009C000751E05D400F0E4F9303262556D1EF9D57C
:1009D000B3460122084302D000227F1C04E02078A5
:1009E000302801D100227F1E002A099786D01DE001
:1009F000112D07DA00F0CCF9303262556D1C50EA47
:100A00000102F5D1084302D00098C8B10EE00021E0
:100A1000681E05E0235C625C63542254401E491C3E
:100A20008142F7DBAB46A81B401E0990002004F86A
:100A30000B000B98099AC0F80880C0E9002B7CE7EE
:100A400011264FF0000859E72DE9F04F884604467B
:100A5000D21D22F0070191B0D1E90001CDE90A01D0
:100A600006F019FD02460B98C00F01D02D2007E0BB
:100A70002068810701D52B2002E0202101EAC00077
:100A8000032A099001D0072A05DB03464146204688
:100A900000F0C4F90BE12078800601D5E06900E0A0
:100AA0000620B8F1650F814606D0B8F1660F18D060
:100AB000B8F1670F70D131E00020B9F1110F00904B
:100AC00001DB112301E009F101030AAA01A90CA825
:100AD000FFF7E4FEDDE90C70002609F1010583460D
:100AE00047E001204B4600904FF000470AAA01A9B9
:100AF0000CA8FFF7D3FEDDE90DB00C995D4600268A
:100B000010B909F101000D18B9EB050003D4C0F1CB
:100B1000FF3609F10105A5EB09002BE0B9F1010F42
:100B200001DA4FF001090020B9F1110F0090484699
:100B300001DD112300E003460AAA01A90CA8FFF772
:100B4000ADFEDDE90C704D46002683462078000797
:100B50000AD4AB4500DA5D4601A8012D04DD411938
:100B600011F8011C302907D04F4502DA17F1040FA4
:100B700004DA012082460FE06D1EEEE7002F02DC52
:100B8000ED1B3E4403E0781CA84200DD7D1CB81B31
:100B900000F1010A4FF000472078000703D4AA456E
:100BA00001DB4FF0FF3A0021B7F1004F0DF1430890
:100BB0008DF8431024D002202B23002F01DA7F422E
:100BC0002D230A21021EA0F1010000DC5FB197FB7A
:100BD000F1FC97FBF1F201FB1C7C17460CF1300C89
:100BE00008F801CDEEE7A8F101000370218809059E
:100BF00001D5452100E06521A0F1010800F8011CA4
:100C000009980FA9A1EB0807FF1D00B101204119A8
:100C100001EBEA70A1693844081A401EA0612078EF
:100C2000C00602D42046FFF761FB099828B1D4E939
:100C300001219047206A401C20622078C00622D5FE
:100C40002046FFF753FB1EE0002E04DBB34502DD18
:100C500001A8805D00E03020D4E901219047206A9E
:100C6000401C2062761CAAF101005FEA000A0AD14A
:100C700000F086F8C0680168405CD4E90121904723
:100C8000206A401C2062281EA5F10105DCDC07E07B
:100C9000D4E9012118F8010B9047206A401C20621A
:100CA000381EA7F10107F3DC2046FFF735FB0320D0
:100CB00011B043E601694A1C02610878704700B52B
:100CC0008FB0CDE901310021059105497944CDE985
:100CD000031011466846FFF7C1FB0FB000BD0000CE
:100CE000E5FFFFFF0A6802F8010B0A60704710B5C4
:100CF000436913B1AFF3008001E0FFF71EFB012051
:100D000010BD127800F124010A7000224A700122FD
:100D1000EDE711684FF0FF32E9E710B5203AC0F077
:100D20000B80B1E81850203AA0E81850B1E81850EC
:100D3000A0E81850BFF4F5AF5FEA027C24BFB1E829
:100D40001850A0E8185044BF18C918C0BDE810409A
:100D50005FEA827C24BF51F8043B40F8043B08BFA3
:100D60007047D20728BF31F8023B48BF11F8012B6A
:100D700028BF20F8023B48BF00F8012B7047000055
:100D800000487047809E002000487047609E002009
:100D900030B5B0F10A024FEA900E71F100034EEA4D
:100DA000817EB0EB0E0061EB91014FEA101E4EEA1E
:100DB000017E10EB0E0041EB11114FEA102E4EEAAE
:100DC000016E10EB0E0041EB11214FEA104E4EEA7E
:100DD000014E10EB0E0041EB1141401841F10001B2
:100DE0004FEAD00040EA41704FEAD10110EB800594
:100DF0004FEA810444EA907444EB01046D1944EB1A
:100E00000404521BA3414FF0000348BF0A3200D52F
:100E100030BD401C41F1000130BD00002DE9F04122
:100E20001F46044603260168072A01F4006004DB1C
:100E300008B116A505E016A503E008B115A500E068
:100E400015A521F010002060A069C01EA0610FB19F
:100E5000401EA0612046FFF749FA4FB1D4E90121B5
:100E600038469047206A401C2062C01C206206E081
:100E7000206AFAE7D4E9012115F8010B9047761EA4
:100E8000F8D22046FFF748FABDE8F0814E414E0007
:100E90006E616E00494E4600696E66002DE9F047AE
:100EA000814616468AB0334878440DC88DE80D0057
:100EB00030487844801C03AC0DC884E80D0041F62E
:100EC0009B300844372190FBF1F290FBF1F5A5F13E
:100ED000800501FB12041B3C02D56442012000E0A6
:100EE0000020DFF890A080460027FA44AAF1BE0A4D
:100EF0000DE0E00709D03246684607EB47010AEBF0
:100F0000810100F0F0FA8DE8070064107F1C002CCE
:100F1000EFD1184F7F44AC3F18E0E80714D007EB3F
:100F200004100DF1180A90E80E008AE80E00C0685F
:100F3000F04201D198190890324606A903A800F0A2
:100F4000D2FA03AB83E807006D10641C002DE4D1D6
:100F500032466946B8F1000F03A802D000F0AFFA9C
:100F600001E000F0C0FAC9E90001C9F808200AB0A0
:100F7000BDE8F087A40B010000487047609E002088
:100F80007546FFF7F9FFAE4605006946534620F067
:100F90000700854618B020B5FFF75CF9BDE8204092
:100FA0004FF000064FF000074FF000084FF0000B25
:100FB00021F00701AC46ACE8C009ACE8C009ACE8D8
:100FC000C009ACE8C0098D46704710B50446AFF3C0
:100FD00000802046BDE81040FFF727B95FEA400CCB
:100FE00008BF91F0000F4FEA8C234FEAC12243EA79
:100FF00051514FEA1C5018BF00F5F0404FEA300045
:1010000018BF41F000415FEA6C5C00F02980BCF140
:10101000FF3F08BF40F080407047130C06BF12042A
:101020004FF0100C4FF0000C130E04BF12020CF125
:10103000080C130F04BF12010CF1040C930F04BF32
:1010400092000CF1020CD30F04BF52000CF1010C02
:1010500011464FF00002A0F11F00A0EB0C007047FA
:1010600011F0004F08BF704731F000413FF4D5AF99
:101070000B0C06BF09044FF0100C4FF0000C0B0EC8
:1010800004BF09020CF1080C0B0F04BF09010CF19D
:10109000040C8B0F04BF89000CF1020CCB0F04BFB2
:1010A00049000CF1010CCCF12003A0EB0C0022FA5A
:1010B00003F302FA0CF241EA030100F10100704768
:1010C00020F07F4C80EA030023F07F47ACEB07035E
:1010D00003F57C5300F0004003F1FF032DE9804944
:1010E0004FEA154B09B44FEA144325EA0B4E24EAA4
:1010F00003480FF2042606EB132749083E785FEAFF
:10110000320203FB0667C7F5000707FB06F64FEA46
:1011100054374FEAD64606F1020607FB066CCCF1BF
:10112000005C4FEA1C472CEA074C07FB06F40CFB5B
:1011300006F504EB15464FEA961634BF00204FF033
:1011400000404FEAD13706FB07FC4FEA1C4C0CFB72
:101150000BF7D21B03FB0CF761EB07010CFB0EF73F
:10116000B0EB074072EB17420CFB08F734BFA2EB61
:101170000742B2EB074261EB17414FEA0C444FEADA
:10118000910706FB07FC4FEA1C4C0CFB0BF7B0EB7E
:10119000C74072EB573203FB0CF734BFA2EBC742D8
:1011A000B2EBC74261EB57310CFB0EF7B0EBC70057
:1011B00072EB57720CFB08F734BFA2EBC702B2EB1D
:1011C000C70261EB5771039F4FEA816141EA9211B7
:1011D00004EBCC044FEAD1374FEA826206FB07FCEE
:1011E00042EA90124FEA80604FEA1C4C0CFB0BF76E
:1011F000D21B03FB0CF761EB07010CFB0EF7B0EB06
:10120000074072EB17420CFB08F734BFA2EB074212
:10121000B2EB074261EB17414FEA8C554FEA910759
:1012200004EB9C2406FB07FC4FEA1C4C0CFB0BF761
:10123000B0EBC74072EB573203FB0CF734BFA2EBA5
:10124000C742B2EBC74261EB57310CFB0EF7B0EB74
:10125000C70072EB57720CFB08F734BFA2EBC70252
:10126000B2EBC70261EB577115EB4C254FEA816178
:1012700041EA92114FEA82624FEAD13742EA901274
:1012800006FB07FC44F100044FEA80604FEA1C4C67
:101290000CFB0BF7D21B03FB0CF761EB07010CFBFC
:1012A0000EF7B0EB074072EB17420CFB08F734BFA8
:1012B000A2EB0742B2EB074261EB174115EB1C159D
:1012C0004FEA813141EA92414FEA823242EA90424A
:1012D0004FEA80304FEA0C7644F1000448EA0343B9
:1012E0004EEA0B484FF0000EB2EB080C71EB03070F
:1012F00024BF624639464EEB0E0E4FF0000B00182D
:10130000524149414BEB0B0BB2EB080C71EB03075D
:101310007BF1000B24BF624639464EEB0E0E4FF0B8
:10132000000B0018524149414BEB0B0BB2EB080C80
:1013300071EB03077BF1000B24BF624639464EEB8D
:101340000E0E51EA020718BF46F0010616EB0E76A4
:1013500055F1000254F1000103D5BDE88901BDE853
:101360000088BDE88901BDE80048B619524141EB4B
:101370000101A3F10103704780807F7E7D7C7B7A31
:101380007978777676757473727171706F6E6E6D31
:101390006C6C6B6A6A6968686766666564646363D7
:1013A00062616160605F5F5E5E5D5D5C5C5B5B5A5D
:1013B0005A595958585757565655555554545353CA
:1013C00052525251515050504F4F4F4E4E4D4D4D25
:1013D0004C4C4C4B4B4B4A4A4A4949494848484770
:1013E00047474746464645454544444444434343AE
:1013F0004342424242414141002B26D4770021D052
:101400001CB54FEA370703B44FF010004FF010013E
:101410004FF000000FBCBDE810400BF1010BBBF119
:10142000010F08BF5FEA170722BF12F1010211F195
:1014300001014FF0004143F1000300F0004043EA96
:1014400000007047F9D35708DAE746EA064613F179
:10145000400F4FEA16461FDD13F1200FDFBF164382
:101460000A46002120335B42C8D0C3F1200746EA78
:10147000064602FA07F74FEA164646EA0706C3F1A0
:10148000200722FA03F201FA07F721FA03F14FF0DD
:10149000000342EA0702B1E746EA020646EA0646C8
:1014A0004FEA164646EA0106BCBF46EA0646360C37
:1014B0004FF000034FF000024FF000019EE72DE9CE
:1014C000C048934630B491E8380007C831EA400C70
:1014D00048BF34EA430C03D5FFF7F2FDFFF78CFF5A
:1014E000F0BCBDE800882DE9C048934630B491E8CF
:1014F000380007C810F0804F08BF13F0804F03D1A9
:1015000000F005F8FFF778FFF0BCBDE8008820F098
:101510007F4780EA030023F07F4C07EB0C03A3F521
:101520007C5300F00040A3F1FE0392F0000F00F0A6
:10153000B38095F0000F00F077802DE901494FEA64
:1015400011404FEA144621EA004800FB06FC24EA59
:10155000064708FB06F607FB08F800FB07F718EB41
:1015600006484CEB164C4FEA124B18EB07484FEA73
:1015700015464CEB174022EA0B4E0BFB06FC25EA06
:1015800006470EFB06F607FB0EFE0BFB07F71EEBEE
:10159000064E4CEB164C4FF000061EEB074E4CEB84
:1015A000174B18EB0B0840F1000018EB0E0B58EB33
:1015B000000840F100008F1A4FF000013CBFC94302
:1015C000661B14BFB5EB040C00213CBFC943F61BDE
:1015D0004FEA17444EEA8E0E27EA04454FEA1C47AD
:1015E00004FB07622CEA074C05FB07F70CFB05F62A
:1015F00004FB0CFC16EB074642EB174216EB0C46BD
:1016000042EB1C421BEB060658EB0202414146EA44
:101610009E0601D5BDE80189B619524141EB010191
:10162000A3F10103BDE801894FEA14454FEA1147D0
:1016300024EA054621EA074C05FB07F406FB07F7F9
:101640000CFB06F105FB0CFC11EB074144EB1744C6
:101650004FEA124711EB0C4144EB1C4422EA074CC1
:1016600005FB07F206FB07F70CFB06F605FB0CFC77
:1016700016EB074642EB174216EB0C4642EB1C45B5
:101680006A1854F1000148BF7047B619524141EB46
:101690000101A3F10103704795F0000F37D04FEA25
:1016A00011424FEA144721EA024624EA074C02FBA2
:1016B00007F106FB07F70CFB06F402FB0CFC14EB2E
:1016C000074441EB17414FEA154714EB0C4441EB3B
:1016D0001C4125EA074C02FB07F506FB07F70CFB4C
:1016E00006F602FB0CFC16EB074645EB174516EB1E
:1016F0000C4645EB1C42121951F1000148BF7047DE
:10170000B619524141EB0101A3F1010370474FEAC1
:1017100014454FEA114724EA054621EA074C05FB28
:1017200007F106FB07F70CFB06F24FF0000605FB7E
:101730000CFC12EB074241EB174112EB0C4251EB50
:101740001C4148BF7047921841EB0101A3F101030E
:10175000704700002DE9FF4705460C4616463078D5
:10176000012808D12868206068686060A868A060C7
:101770000020307055E0286809F0BCFA07462A4A74
:101780002A4B08F0A7FF81468A46206809F0B2FA82
:101790000746274A274B08F09DFF4A465346CDE9A6
:1017A000000108F04FFDCDE9020108F019FD2060AD
:1017B000686809F09FFA07461B4A1C4B08F08AFF2D
:1017C00081468A46606809F095FA0746184A194B1F
:1017D00008F080FF4A465346CDE9000108F032FD8B
:1017E000CDE9020108F0FCFC6060A86809F082FA0B
:1017F00007460D4A0D4B08F06DFFCDE90001A068CA
:1018000009F078FA07460A4A0A4B08F063FF814656
:10181000DDE9002308F016FDCDE9020108F0E0FC47
:10182000A060BDE8FF8700007B14AE47E17A843FEB
:10183000AE47E17A14AEEF3F0FB5A5B0002012908D
:1018400011901090FE4800680F90FD4800680E90BF
:101850000F9909F011FC1C90F94840680F90F84866
:1018600000680E900F9909F007FC1B90F4488068FF
:101870000F90F34800680E900F9909F0FDFB1A9045
:10188000EF48C0680F90EE4800680E900F9909F07D
:10189000F3FB1990EA4840680F90E94840680E90C1
:1018A0000F9909F0E9FB1890E54880680F90E4482B
:1018B00040680E900F9909F0DFFB1790E048C06870
:1018C0000F90DF4840680E900F9909F0D5FB1690F5
:1018D000DB4880680F90DA4880680E900F9909F015
:1018E000CBFB1590D648C0680F90D54880680E9005
:1018F0000F9909F0C1FB1490D148C0680F90D048EF
:10190000C0680E900F9909F0B7FB139018991C98B6
:1019100009F01CFA0E90159909F03EFD0F901399ED
:1019200009F03AFDC74908601999179809F00EFAAD
:101930004FF080410F9009F09FFBC24948601A990F
:10194000169809F029FD4FF080410F9009F094FBA3
:10195000BC4988601999179809F01EFD4FF0804125
:101960000F9009F089FBB749C86018991C9809F0D5
:1019700013FD0E90159909F0E9F90F90139909F0EC
:101980000BFDB04908611B99149809F0DFF94FF07D
:1019900080410F9009F070FBAA4948611A99169886
:1019A00009F0D4F94FF080410F9009F065FBA5498B
:1019B00088611B99149809F0EFFC4FF080410F905B
:1019C00009F05AFB9F49C86118991C9809F0E4FC7A
:1019D0000E90159909F0E0FC0F90139909F0B6F9F3
:1019E000984908622B99084609F046FB0E902A99FF
:1019F000084609F041FB0C902899084609F03CFB89
:101A00000B900C9909F0A2F90D900E9909F09EF92E
:101A10000F9007F0D5FC23902399289809F02CFB10
:101A2000289023992A9809F027FB2A9023992B982C
:101A300009F022FB2B901A99169809F0ADFC4FF093
:101A400080410F9009F018FB22901B99149809F01F
:101A50007DF94FF080410F9009F00EFB219018990D
:101A60001C9809F099FC0E90159909F095FC0F90BF
:101A7000139909F06BF9209021992B9809F0FCFA41
:101A80000F9020992A9809F0F7FA0E900F9909F013
:101A900083FC1F902099289809F0EEFA0F90229964
:101AA0002B9809F0E9FA0E900F9909F075FC1E9039
:101AB00022992A9809F0E0FA0F902199289809F0C4
:101AC000DBFA0E900F9909F067FC1D904FF07E50E5
:101AD0001F9909F0D1FA12904FF07E501E9909F02B
:101AE000CBFA11904FF07E501D9909F0C5FA109075
:101AF0001299259809F02AF925901199269809F04C
:101B000025F926901099279809F020F927904C483C
:101B1000C0680390279909F0AFFA0590484880689B
:101B20000190269909F0A8FA03904548406880F092
:101B300000400190259909F09FFA0290039909F05D
:101B40002BFC0490059909F027FC06902C9909F0CC
:101B500093FA079009F0CEF800223B4BCDE908013B
:101B600008F0B8FDCDE90C0135480068099009F08E
:101B7000C1F8CDE90A01DDE90C2308F063FBCDE9EA
:101B80000E0108F02DFB2E4908600846C06803903E
:101B9000269909F071FA05902948806801902799E3
:101BA00009F06AFA039026480068014601902598DA
:101BB00009F062FA0290039909F0C8F804900599B7
:101BC00009F0EAFB06902C9909F056FA079009F003
:101BD00091F800221C4BCDE9080108F07BFDCDE90E
:101BE0000C0117484068099009F084F8CDE90A0112
:101BF000DDE90C2308F026FBCDE90E0108F0F0FA30
:101C00000F4948600846C06801460390259809F0CE
:101C100033FA05900A4840680190279909F02CFA98
:101C20000390074800680190269909F025FA029070
:101C3000039909F0B1FB0490059909F087F805E0D4
:101C4000E8000020880400200000E03F06902C9966
:101C500009F012FA079009F04DF80022564BCDE931
:101C6000080108F037FDCDE90C015448806809905F
:101C700009F040F8CDE90A01DDE90C2308F0E2FAA9
:101C8000CDE90E0108F0ACFA4C498860084680683E
:101C900001460390259809F0EFF905904748406800
:101CA0000190269909F0E8F90390444800680190F2
:101CB000279909F0E1F90290039909F047F8049097
:101CC000059909F069FB06902C9909F0D5F9079060
:101CD00009F010F80022384BCDE9080108F0FAFCB1
:101CE000CDE90C013548C068099009F003F8CDE949
:101CF0000A01DDE90C2308F0A5FACDE90E0108F090
:101D00006FFA2E49C8600846C0680C900846C06843
:101D10000B900C9909F0B0F90E90284880680A9051
:101D20002648806809900A9909F0A6F90C90234882
:101D300040680890214840680790089909F09CF98C
:101D40000A901E48006808901C480068079008998F
:101D500009F092F909900A9908F0F8FF0B900C9994
:101D600008F0F4FF0D900E9908F0F0FF0F9007F0C7
:101D700027FB2390114800680F90239909F07CF904
:101D80000E490860084640680F90239909F074F9DD
:101D90000A494860084680680F90239909F06CF959
:101DA000064988600846C0680F90239909F064F9D5
:101DB0000249C86029B000BD0000E03FE8000020F3
:101DC0000FB5A5B00020129011901090FE48006849
:101DD0000F90FD4800680E900F9909F04DF91C9086
:101DE000F94840680F90F84800680E900F9909F084
:101DF00043F91B90F44880680F90F34800680E90F8
:101E00000F9909F039F91A90EF48C0680F90EE4821
:101E100000680E900F9909F02FF91990EA48406870
:101E20000F90E94840680E900F9909F025F9189035
:101E3000E54880680F90E44840680E900F9909F0DB
:101E40001BF91790E048C0680F90DF4840680E907B
:101E50000F9909F011F91690DB4880680F90DA4865
:101E600080680E900F9909F007F91590D648C06860
:101E70000F90D54880680E900F9909F0FDF81490E6
:101E8000D148C0680F90D048C0680E900F9909F0F3
:101E9000F3F813902B99084609F0EEF80E902A9962
:101EA000084609F0E9F80C902899084609F0E4F88A
:101EB0000B900C9908F04AFF0D900E9908F046FF20
:101EC0000F9007F07DFA23902399289809F0D4F811
:101ED000289023992A9809F0CFF82A9023992B98D3
:101EE00009F0CAF82B901A99169809F055FA4FF094
:101EF00080410F9009F0C0F822901B99149808F0C7
:101F000025FF4FF080410F9009F0B6F82190189905
:101F10001C9809F041FA0E90159909F03DFA0F90BE
:101F2000139908F013FF209021992B9809F0A4F839
:101F30000F9020992A9809F09FF80E900F9909F0B8
:101F40002BFA1F902099289809F096F80F90229963
:101F50002B9809F091F80E900F9909F01DFA1E9038
:101F600022992A9809F088F80F902199289809F069
:101F700083F80E900F9909F00FFA1D9093480168AD
:101F80009348006809F078F80F901F9909F074F8E9
:101F900012908E4801688E48006809F06DF80F9025
:101FA0001E9909F069F8119088480168884800680E
:101FB00009F062F80F901D9909F05EF810908548BD
:101FC00001688348006809F023F950D2804801680D
:101FD000006809F051F80C907F4801680C9809F0EE
:101FE0004BF80D901F9909F047F80E902C9909F0C5
:101FF00043F80F90794801680F9808F0A7FE7749D9
:10200000086073480168006809F036F80C9072485F
:1020100001680C9809F030F80D901E9909F02CF821
:102020000E902C9909F028F80F906D4801680F98D0
:1020300008F08CFE6A49086065480168006809F08C
:102040001BF80C90644801680C9809F015F80D9085
:102050001D9909F011F80E902C9909F00DF80F90C8
:10206000604801680F9808F071FE5E4908605B489F
:102070000168129808F06AFE0F90259908F066FE34
:10208000259057480168119808F060FE0F90269936
:1020900008F05CFE269053480168109808F056FE40
:1020A0000F90279908F052FE27904748C068039088
:1020B000279908F0E1FF0590434880680190269930
:1020C00008F0DAFF03904048406880F0004001903B
:1020D000259908F0D1FF0290039909F05DF9049069
:1020E000059909F059F906902C9908F0C5FF079059
:1020F00008F000FE00223C4BCDE9080108F0EAFAA6
:10210000CDE90C0130480068099008F0F3FDCDE9F5
:102110000A01DDE90C2308F095F8CDE90E0108F07D
:102120005FF8294908600846C0680390269908F0BE
:10213000A3FF0590244880680190279908F09CFF30
:1021400003902148006801460190259808F094FF0B
:102150000290039908F0FAFD0490059909F01CF922
:1021600006902C9908F088FF079008F0C3FD002224
:102170001D4BCDE9080108F0ADFACDE90C0112487C
:102180004068099008F0B6FDCDE90A01DDE90C23AD
:1021900008F058F8CDE90E0108F022F80A49486025
:1021A0000846C06801460390259808F065FF059031
:1021B000054840680190279908F05EFF03900248A7
:1021C00000680190269911E0F80000201801002015
:1021D00024010020280100201C01002054010020BF
:1021E000580100205C0100200000E03F08F044FF9F
:1021F0000290039909F0D0F80490059908F0A6FD23
:1022000006902C9908F038FF079008F073FD002223
:102210007F4BCDE9080108F05DFACDE90C017D485E
:102220008068099008F066FDCDE90A01DDE90C231C
:1022300008F008F8CDE90E0107F0D2FF7549886073
:102240000846806801460390259808F015FF059020
:10225000704840680190269908F00EFF03906D4881
:1022600000680190279908F007FF0290039908F091
:102270006DFD0490059909F08FF806902C9908F0EF
:10228000FBFE079008F036FD0022614BCDE9080106
:1022900008F020FACDE90C015E48C068099008F00A
:1022A00029FDCDE90A01DDE90C2307F0CBFFCDE9DB
:1022B0000E0107F095FF5749C8600846C0680C90AA
:1022C0000846C0680B900C9908F0D6FE0E90514855
:1022D00080680A904F48806809900A9908F0CCFEFF
:1022E0000C904C48406808904A484068079008990C
:1022F00008F0C2FE0A904748006808904548006808
:102300000790089908F0B8FE09900A9908F01EFD98
:102310000B900C9908F01AFD0D900E9908F016FD1F
:102320000F9007F04DF823903A4800680F902399DA
:1023300008F0A2FE37490860084640680F902399CC
:1023400008F09AFE33494860084680680F90239948
:1023500008F092FE2F4988600846C0680F902399C4
:1023600008F08AFE2B49C8601A99169809F014F8EB
:102370004FF080410D9008F07FFE0E9005F0CAF8F6
:1023800025490F9008F078FE2449486018991C9858
:1023900009F002F80B90159908F0FEFF0C901399C4
:1023A00008F0D4FC0E901B99149808F0CFFC4FF065
:1023B00080410C9008F060FE0D900E9905F03CF9FC
:1023C00017490F9008F058FE1449086018991C9896
:1023D00008F0BCFC0B90159908F0DEFF0C901399E7
:1023E00008F0DAFF0E901999179808F0AFFC4FF03B
:1023F00080410C9008F040FE0D900E9905F01CF9FC
:1024000007490F9008F038FE0449886029B000BDE4
:102410000000E03FF8000020333365C204050020CF
:102420003333654210B586B0044602F0A9FB0D486F
:1024300080780C4949780B4A12780A4B9B7ACDE98F
:102440000132CDE903100748407A00900548B0F802
:102450000730054805A102682046FDF733FF06B0A6
:1024600010BD0000E801002070000020303A2F2548
:10247000732F426173655F53746174696F6E5F257A
:10248000303464253032642530326425303264259E
:10249000303264253032642E7478740070B504468E
:1024A0000E4615463146206808F0B2FD01D226607E
:1024B00005E02946206808F0ABFE00D2256070BD1B
:1024C00000BFFEE710B5294A1168294A106808F0D4
:1024D0003DFC28490860254A5168254A506808F0A3
:1024E00035FC24494860214A9168214A906808F0E7
:1024F0002DFC20498860204A1168204A106808F0A5
:1025000025FC1F4908601C4A51681C4A506808F0A5
:102510001DFC1B494860184A9168184A906808F0E9
:1025200015FC17498860174A1168154A106808F0A9
:10253000A3FD13490860134A5168114A506808F016
:102540009BFD0F4948600F4A91680D4A906808F05A
:1025500093FD0B4988600C4A0C49064800F0BCFF0B
:102560000B4A0C490648FFF7F5F810BDC4000020DF
:10257000AC040020C4040020D0000020B8040020D7
:10258000DC040020DC00002052010020D0040020E8
:1025900053010020E80400202DE9F0410546002702
:1025A0000024002602F070FB07463E48B7FBF0F41B
:1025B0003D480088A0423CD03B490C8040F2B276B6
:1025C00010E0304601F098F940B1B4F5B77F02D37E
:1025D000A4F5B77404E0701C86B206E0A4F26D1492
:1025E000701C86B2B4F5B67FEBD800BFA5F80760C3
:1025F000002616E0B5F8070001F07EF930B1012E93
:1026000004D11D2C01D31D3C09E00CE02748805D5E
:10261000A04203D82548805D241A00E003E0701C26
:1026200086B21C2CE6D200BF701C6872601CA872B7
:102630000AE01F48B0F80700A5F807001C48407AD8
:1026400068721B48807AA8721648B7FBF0F100FB4D
:1026500011744FF46160B4FBF0F028704FF46160C6
:10266000B4FBF0F100FB11403C21B0FBF1F06870CD
:102670004FF46160B4FBF0F100FB11403C21B0FB72
:10268000F1F201FB1200A8700A4800880A49098883
:1026900001EB4102C2EBC11100EBC100C5F8030020
:1026A000BDE8F08180510100600000207AB500088B
:1026B000E8010020240400405C0000201848008845
:1026C00000F4004088B11648008820F40040144906
:1026D0000880084600886FF30D0040F06400088011
:1026E0000846008840F4804008800D48008800F4C7
:1026F000804098B10A480088C0F30D0040B10848F6
:102700000088401E0649088000200649086005E050
:10271000012004490860002001490880704700003A
:10272000280000209481214200210170C170817035
:1027300041707047002242F2107105E00948406B79
:1027400000F0800000B103E0081EA1F10101F5D105
:1027500000BF09B90320704740F2FF50014B986356
:102760001046F8E700800140024605E01348416B3F
:1027700001F0450000B100E0F8E700BF01F00400FF
:1027800020B104200D4B98630320704701F0010035
:1027900018B10120094B9863F7E708480069904297
:1027A00001D01020F1E740F2FF50044B9863184627
:1027B000406908231840C0B2E7E7000000800140EC
:1027C00010B5002042F2107205E0134B596B01F076
:1027D000450303B103E0131EA2F10102F5D100BFCE
:1027E00012B101F004033BB103200B4B9B6B43F090
:1027F0000403094CA36310BD01F0010333B10120B0
:10280000054B9B6B43F00103034CA36340F2FF5362
:10281000014CA36300BFEEE70080014005E00C48D7
:10282000416B01F0450000B100E0F8E700BF01F0A6
:10283000040038B10648806B40F00400044A9063FD
:102840000320704740F2FF50014A90630020F8E7F0
:102850000080014070B503460C46002505E0214884
:10286000426B02F0450000B100E0F8E700BF02F063
:10287000040038B11B48806B40F00400194EB0636F
:10288000032070BD02F0010038B11648806B40F0A3
:102890000100144EB0630120F3E71248006998422A
:1028A00001D01020EDE740F2FF500E4EB0633046ED
:1028B000416901F4604018B9080C20802846E0E71F
:1028C00001F4005008B11320DBE701F4804008B1A7
:1028D0001020D6E701F4004008B10F20D1E72846C8
:1028E000CFE700000080014010B5002042F21072D6
:1028F00005E0114B596B01F0450303B103E0131ED2
:10290000A2F10102F5D100BF12B101F004033BB105
:102910000320094B9B6B43F00403074CA36310BDDA
:1029200001F0400333B10020034B9B6B43F04003A5
:10293000014CA36300BFF2E70080014010B54FF4E3
:10294000003000F039F900284BD04FF4C02000F0DF
:1029500061F82C48007800F0800008BB2948007816
:1029600040F08000274908700846007800F0010018
:1029700050B90846007840F001000870062122484E
:10298000006800F007F92CE01E48007820F00100F4
:102990001C49087006211D48006800F0FBF820E083
:1029A0001B480088401C1A4908801648007800F02F
:1029B000010058B91348007840F00100114908702F
:1029C00006211148006800F0E5F80AE00D4800789B
:1029D00020F001000B49087006210C48006800F047
:1029E000D9F84FF4002000F0E7F850B14FF4002080
:1029F00000F010F80648008844F6206108440449B5
:102A0000088010BDB4000020B0000020AC00002001
:102A10003C00002000F0805111B10349086001E042
:102A20000249486070470000040402400000024070
:102A300021B1026842F00102026004E002684FF630
:102A4000FE731A400260704701684FF6FE72114033
:102A500001600021016041608160C1604B49884292
:102A600008D14A490839496841F00F01474A083AF4
:102A700051608AE045491431884208D143490839F8
:102A8000496841F0F001414A083A51607DE03F4910
:102A90002831884208D13D490839496841F47061BC
:102AA0003A4A083A516070E038493C31884208D1CE
:102AB00036490839496841F47041344A083A51604E
:102AC00063E032495031884208D1304908394968B9
:102AD00041F470212D4A083A516056E02B49643187
:102AE000884208D129490839496841F47001274AC8
:102AF000083A516049E025497831884208D1234994
:102B00000839496841F07061204A083A51603CE058
:102B10001F49884206D1011F096841F00F01021FB9
:102B2000116032E01A491431884208D11849091F4E
:102B3000096841F0F001164A121F116025E014499E
:102B40002831884208D11249091F096841F470618F
:102B50000F4A121F116018E00D493C31884208D11C
:102B60000B49091F096841F47041094A121F11609D
:102B70000BE007495031884207D10549091F096810
:102B800041F47021024A121F116070470800024090
:102B90000804024070B505460C4600210548FFF7C1
:102BA00047FF044858384566C46501210148FFF7CE
:102BB0003FFF70BD5800024001460020002201F096
:102BC000805313B1054B1A6801E0054B1A6802EAFD
:102BD00001030BB1012000E0002070470004024017
:102BE000000002401AB103680B43036002E003686F
:102BF0008B430360704710B50022026847F6F073FC
:102C00009A430C6A8B6823430C6923434C69234322
:102C10008C692343CC6923434C6A23438C6A234346
:102C20001A430260CB6843600B6883604B68C360E3
:102C300010BD704700B587B004A8FFF7ADFC0221B6
:102C4000174800F0A2F930BB1648007818BB04A959
:102C500001A801F063FF01AB9DF804001249087060
:102C60009DF8050048709DF806008870DDF80700A3
:102C7000C1F80300BDF80B00A1F807009DF80D0096
:102C80004872987A8872D87AC87205200549087007
:102C9000002006490880022000F00AF807B000BDB5
:102CA000000C01402A000020D00100202408004030
:102CB0000149086070470000140401400146B1F862
:102CC0000100704700210170A0F80110A0F8031066
:102CD000A0F805107047B0F80330C21DD15430F889
:102CE000012F521C02804288401EC72A03DB0022AB
:102CF000A0F8032004E0B0F80320521CA0F8032041
:102D0000704770B504460D462046FFF7D7FFC82828
:102D100001DB022070BD29462046FFF7DCFF0020C2
:102D2000F8E70000FCB507460D4600260024002009
:102D30000090019008220121102002F0E1F91020FA
:102D4000FFF712FD04460CB12046FCBD3A040121F8
:102D5000372002F0D5F93720FFF706FD04460CB105
:102D60002046F2E7012303220821404802F0E8F957
:102D700000220121332002F0C3F93320FFF7F4FCD5
:102D800004460CB12046E0E70DE03948406B00F402
:102D9000001040B13648803000684DF82600761C9F
:102DA000022E00D306E03248406B40F22A61084010
:102DB0000028EAD000BF2E48406B00F0080038B170
:102DC0002B48806B40F00800294988630420BCE749
:102DD0002748406B00F0020038B12548806B40F076
:102DE0000200234988630220AFE72148406B00F0CE
:102DF000200038B11E48806B40F020001C498863D9
:102E00000620A2E71A48406B00F4007038B1184859
:102E1000806B40F4007016498863072095E740F204
:102E2000FF501349886300980006009901F47F4120
:102E300040EA0120009901F47F0140EA1120009945
:102E400040EA1160686001980006019901F47F4131
:102E500040EA0120019901F47F0140EA1120019923
:102E600040EA1160286020466FE70000FFFF0F0076
:102E7000008001402DE9F041024600250026002097
:102E800000230024002791F803C00CF00F0591F8EF
:102E900003C00CF0100CBCF1000F03D091F802C07D
:102EA0004CEA050591F800C0BCF1000F31D0146860
:102EB00000202BE04FF0010C0CFA00F3B1F800C039
:102EC0000CEA03069E4220D183004FF00F0C0CFA4F
:102ED00003F7BC4305FA03FC4CEA040491F803C071
:102EE000BCF1280F06D14FF0010C0CFA00FCC2F81F
:102EF00014C00AE091F803C0BCF1480F05D14FF0AF
:102F0000010C0CFA00FCC2F810C0401C0828D1D3F8
:102F10001460B1F800C0BCF1FF0F34DD546800202C
:102F20002EE000F1080C4FF0010808FA0CF3B1F89C
:102F300000C00CEA03069E4221D183004FF00F0C23
:102F40000CFA03F7BC4305FA03FC4CEA040491F8BD
:102F500003C0BCF1280F05D100F1080C08FA0CF8E9
:102F6000C2F8148091F803C0BCF1480F07D100F1FA
:102F7000080C4FF0010808FA0CF8C2F81080401C49
:102F80000828CED35460BDE8F08102460020936843
:102F90000B400BB1012000E00020704741617047F9
:102FA000016170470146C81C704770B50446102582
:102FB000207800F0020008B9102070BD207820F0C1
:102FC00002002070207840F0200020702046FFF79B
:102FD000E9FF064600F0DCF80546207820F02000E6
:102FE0002070204600F07BF82846E6E730B504461E
:102FF0000D46207800F0200000286CD1207800F0E9
:10300000010018B3207800F0400070B10A2D08D1FB
:10301000207840F002002070207820F0010020701D
:1030200059E0204600F05BF855E00D2D04D12078E2
:1030300040F0400020704EE02946204600F0B6F8EF
:10304000002848D0204600F04AF844E0542D06D12C
:10305000002060702946204600F0A8F83BE020469A
:1030600000F03AF8002836DD492D09D1204600F05D
:1030700033F8012804D12946204600F097F82AE0C9
:103080004D2D09D1204600F027F8022804D1294609
:10309000204600F08BF81EE0452D09D1204600F0B7
:1030A0001BF8032804D12946204600F07FF812E0DF
:1030B000412D10D1204600F00FF804280BD12946ED
:1030C000204600F073F8207820F00200207020786D
:1030D00040F00100207030BD014648787047002163
:1030E0004170FF21817000210170704770B5044666
:1030F0000D46A079401BA071A0793C280DDBA0797A
:103100003C38A0716079401C607160793C2804DB18
:10311000002060712079401C2071207908302071D6
:103120002079182830DB207918382071E078401C8D
:10313000E070A078022814D1208800F0DDFB01287F
:1031400007D1E0781D281FDD0120E0700320A0706A
:103150001AE0E0781C2817DD0120E0700320A07041
:1031600012E0E078A178094A515C88420CDD012028
:10317000E070A078401CA070A0780C2804DD01202D
:10318000A0702088401C208070BD00007AB5000827
:1031900010B5044621460448006800F0EFFB08B96A
:1031A000002010BD1020FCE79000002000B5024672
:1031B0000B461046FFF790FF9E2801DB102000BD54
:1031C0005178D01C43545078401C50700020F6E7D2
:1031D0002DE9F0410446104803F022FE0546206820
:1031E000A8420CD94FF6FF722168511A481907F00E
:1031F000FBFE0746094907F01DFE064608E0216868
:10320000681A07F0F1FE0746044907F013FE064668
:1032100025603046BDE8F081000400400024744978
:103220002DE9F04F8FB0064699480068994908602B
:10323000974840684860964880688860964800686B
:103240009649086094484068486093488068886060
:103250009049086807F04EFD21F000410022904B94
:10326000CDE9060107F034FB19D38A49486807F015
:1032700041FD21F000410022894BCDE9060107F014
:1032800027FB0CD38349886807F034FD21F0004107
:103290000022834BCDE9060107F01AFB09D28148D1
:1032A0000068401C7F4908607F480068401C7E49D8
:1032B0000860784908687D4907F0DEFE0D90754981
:1032C00048687A4907F0D8FE0C90724988687749B7
:1032D00007F0D2FE0B90714807684468856874480F
:1032E000007830B9734874490860744874490860BC
:1032F000C3E04FF07C507049086072487049086024
:103300003B468DE87000DDE90B210D98FEF794FA3D
:103310006D488169284607F0AFFE07906A48C1688A
:10332000204607F0A9FE059067480168384607F077
:10333000A3FE0490059907F009FD0690079907F090
:1033400005FD80466048C169284607F095FE079054
:103350005D480169204607F08FFE05905A48416894
:10336000384607F089FE0490059907F0EFFC0690B7
:10337000079907F0EBFC81465348016A284607F09D
:103380007BFE079050484169204607F075FE059086
:103390004D488168384607F06FFE0490059907F0A4
:1033A000D5FC0690079907F0D1FC8246494648466D
:1033B00007F062FE41460290404607F05DFE019034
:1033C000029907F0C3FC039007F094FCCDE90401D7
:1033D00006F0F4FDCDE9060106F002FF83465046F3
:1033E00007F088FC21F000410022384BCDE90401B0
:1033F00007F096FB21F00041CDE9060106F0F0FE52
:103400000A9059464FF0814007F036FE039007F0CE
:1034100071FC00222D4BCDE9040107F08FFACDE9B4
:10342000060106F0DDFE09904FF081400A9907F091
:1034300023FE039007F05EFC0022244BCDE904013B
:1034400007F07CFACDE9060106F0CAFE08904FF0BD
:103450007E521F4909A8FFF721F84FF07E521C4900
:1034600008A8FFF71BF8DDE9081007F0D1FD01D22D
:10347000099800E00898174908603B468DE87000FD
:10348000DDE90B210D98FEF79BFC0FB0BDE8F08F36
:10349000D004002028050020E80400203405002086
:1034A00000005940440100204801002055DE8E3CB8
:1034B000200100200000A040180100200AD7233D71
:1034C0001C0100206F12833B880400200000F03FA5
:1034D000CDCCCC3D2401002003680B6043684B60D9
:1034E00083688B60704700000148006870470000E7
:1034F000B800002002480068401C0149086070477D
:10350000B800002000BFFEE700BF411E081EFCD12E
:1035100070472DE9F0470746884614461D460026A9
:103520004FF0FF09CA4600F085F8384600F0F0F881
:103530008146404600F0ECF8824600F07BF8791CAA
:10354000C8B200F0E5F8824600BF04E000F040F8A1
:10355000A055701CC6B2681EB042F7DC00F006F839
:10356000691E605400F09CF8BDE8F08770B54FF418
:1035700000611648FFF714FD4FF480611348FFF710
:103580000DFD002400251BE04FF480610F48FFF77C
:1035900007FD0A20FFF7B8FF6006040E4FF4006134
:1035A0000A48FFF7F2FC08B144F001044FF48061CF
:1035B0000648FFF7F3FC0A20FFF7A6FF681CC5B218
:1035C000082DE1DB00F0FAF8204670BD000C014048
:1035D00070B54FF400611648FFF7E2FC4FF48061CC
:1035E0001348FFF7DBFC002400251BE04FF480614B
:1035F0000F48FFF7D5FC0A20FFF786FF6006040E90
:103600004FF400610A48FFF7C0FC08B144F0010420
:103610004FF480610648FFF7C1FC0A20FFF774FFF2
:10362000681CC5B2082DE1DB00F056F8204670BDDD
:10363000000C014010B54FF400611848FFF7B0FCD2
:103640000A20FFF761FF4FF480611448FFF7A8FCE0
:103650000A20FFF759FF4FF400611048FFF795FC6F
:1036600008B9012010BD4FF400610C48FFF796FC2B
:103670000A20FFF749FF4FF480610848FFF78EFCEE
:103680000A20FFF741FF4FF400610448FFF77DFC7B
:1036900008B10220E6E70020E4E70000000C01404A
:1036A00010B54FF400610B48FFF778FC0A20FFF7D4
:1036B0002BFF4FF480610748FFF772FC0A20FFF7E9
:1036C00023FF4FF400610348FFF76AFC0A20FFF76D
:1036D0001BFF10BD000C014010B54FF400610B48FA
:1036E000FFF75CFC0A20FFF70FFF4FF480610748EB
:1036F000FFF756FC0A20FFF707FF4FF480610348ED
:10370000FFF74CFC0A20FFF7FFFE10BD000C014044
:1037100070B504464FF480612748FFF73FFC002551
:1037200024E004F0800028B14FF400612248FFF744
:1037300037FC04E04FF400611F48FFF72FFC6006E0
:10374000040E0A20FFF7E0FE4FF480611A48FFF7ED
:1037500027FC0A20FFF7D8FE4FF480611648FFF7D8
:103760001DFC0A20FFF7D0FE681CC5B2082DD8DB6F
:103770004FF400611048FFF713FC0A20FFF7C4FE66
:103780004FF480610C48FFF70BFC0A20FFF7BCFEEA
:103790004FF400610848FFF7F8FB30B14FF4806147
:1037A0000548FFF7FBFB002070BD4FF48061024825
:1037B000FFF7F4FB0120F7E7000C014010B54FF4D0
:1037C00000610B48FFF7ECFB0A20FFF79DFE4FF46A
:1037D00080610748FFF7E4FB0A20FFF795FE4FF4EE
:1037E00080610348FFF7DAFB0A20FFF78DFE10BD6A
:1037F000000C014010B586B0044601F0C1F90D4837
:1038000080780C4949780B4A12780A4B9B7ACDE9AB
:103810000132CDE903100748407A00900548B0F81E
:103820000730054805A102682046FCF74BFD06B0AD
:1038300010BD0000E801002070000020303A2F2564
:10384000732F49636D32303630325F253034642552
:1038500030326425303264253032642530326425BC
:103860003032642E747874001CB504460020019038
:1038700000901F480088020401210D2001F040FC47
:103880001C48406B009002E01A48406B0090009882
:1038900000F045000028F7D0009800F0010038B192
:1038A0001448806B40F001001249886301201CBD60
:1038B000009800F0040038B10E48806B40F004001E
:1038C0000C4988630320F2E70A4800690D2801D0FB
:1038D0001020ECE740F2FF50064988630846406933
:1038E00001900198C0F3432020700020DFE7000022
:1038F00068000020008001400146CA1701EB927267
:103900009210A1EB820292B9642091FBF0F200FBCD
:10391000121050B94FF4C87091FBF0F200FB121076
:1039200008B9012070470020FCE70120FAE70020D9
:10393000F8E7000008B50121082001F01FF8202059
:10394000ADF8000010208DF8030003208DF8020070
:1039500069460948FFF78EFA4020ADF80000694635
:103960000548FFF787FA20210348FFF719FB40219C
:103970000148FFF715FB08BD000C0140F8B50646ED
:103980000D460421284600F0EFF80446FF2C14D021
:10399000285D46280DD1601C285C492809D1A01C4F
:1039A000285C4E2805D1E01C285C452801D1012067
:1039B00000E0002018B90120F8BD0120FCE70C212F
:1039C000284600F0D1F80446FF2C0CD0281969468F
:1039D00000F0EEF807469DF800100A2000F0DDF830
:1039E00097FBF0F701E00120E6E70D21284600F003
:1039F000BBF80446FF2C05D02819694600F0D8F81A
:103A0000308001E00120D7E70E21284600F0ACF815
:103A10000446FF2C05D02819694600F0C9F8B0709B
:103A200001E00120C8E70F21284600F09DF8044678
:103A3000FF2C05D02819694600F0BAF8F07001E0B3
:103A40000120B9E71021284600F08EF80446FF2C2B
:103A500005D02819694600F0ABF8307101E001206B
:103A6000AAE71121284600F07FF80446FF2C05D074
:103A70002819694600F09CF8707101E001209BE76D
:103A80001221284600F070F80446FF2C09D02819AE
:103A9000694600F08DF84FF47A7190FBF1F0B07147
:103AA00001E0012088E739463046FFF71FFB002080
:103AB00082E700000146072323EA01021202054BB8
:103AC00018684FF6FF031840034B18431043014B8F
:103AD000186070470CED00E00000FA0500BFFEE73B
:103AE0002DE9F041064600270024A046002500BF2E
:103AF00029E0002423E016F8018B00251BE008F0E4
:103B0000800048B13F20A0EBC400401BC1B201229D
:103B1000384600F045F908E03F20A0EBC400401B08
:103B2000C1B20022384600F03BF94FEA48604FEA44
:103B30001068681CC5B2082DE1DB601CC4B2082CFB
:103B4000D9DB781CC7B2802FD3DB00F08DF9BDE83C
:103B5000F081000010B50446024901EB8420FFF714
:103B6000BFFF10BD86B500080246134610E010786E
:103B70002A2805D01078202802DB10787A2801DD69
:103B8000FF20704710782C2801D1481EC1B2521C6A
:103B90000029ECD1D01AC0B2F3E710B502460120DB
:103BA00000E050430B1EA1F10104E1B2F9D110BDB8
:103BB0002DE9F34F81B007463C4600200090834634
:103BC00081460026804628E020782D2802D148F042
:103BD0000208641C20782C2802D020782A2800D1E2
:103BE0001CE020782E2803D148F00108641C09E06D
:103BF0002078392802DC2078302803DA4FF00009D9
:103C000000260BE008F0010010B1701CC6B203E002
:103C100009F1010000F0FF09641CD5E700BF08F0BE
:103C2000020000B17F1C00250EE0A9F10100401B3D
:103C3000C1B20A20FFF7B1FF795D3039009A00FB6D
:103C400001200090681CC5B24D45EEDB052E00DD5D
:103C500005260298067000250EE0701E401BC1B2BA
:103C60000A20FFF79AFF09F101012944795C3039F4
:103C700000FB01BB681CC5B2B542EEDB31460A2031
:103C8000FFF78BFF009901FB00BA08F0020008B1B2
:103C9000CAF1000A5046BDE8FE8F704700B5022009
:103CA000FFF708FF00BD000070B5002100230F22C0
:103CB000C47804B3154C246804F4E064C4F5E064EB
:103CC000210AC1F10403CA40447804FA03F184785C
:103CD0001440214309010E4C0678A155047804F0E4
:103CE0001F050124AC4005786D11AD0005F1E025FC
:103CF000C5F8004109E0047804F01F050124AC4038
:103D0000044D0678761145F8264070BD0CED00E0B4
:103D100000E400E080E100E01FB5044600F030FF61
:103D20000A48807809494978084A1278074B9B7AF3
:103D3000CDE90032CDE902100448437AB0F80720FB
:103D400003A12046FCF7BEFA1FBD0000E8010020D9
:103D500025303464253032642530326425303264B5
:103D600025303264253032640000000000200CE071
:103D7000002106E00022064B03EBC0135A544A1CF4
:103D8000D1B28029F6DB421CD0B20828F0DB7047A4
:103D90008C05002010B5FFF7E9FF00F065F810BDB5
:103DA000F0B515460023802801DA402900DBF0BD7C
:103DB0000C46CF1701EB5777FF10C7F10707FAB290
:103DC000CF1701EB5777FF10A1EBC707FEB2C6F183
:103DD00007070124BC40E3B225B1012D0CD0022D10
:103DE0001ED113E0104C04EBC214245C9C430E4F14
:103DF00007EBC2173C5414E00B4C04EBC214245CD8
:103E00001C43094F07EBC2173C540AE0064C04EB75
:103E1000C214245C5C40044F07EBC2173C5400E022
:103E200000BF00BF00BFC2E78C05002070B50024B2
:103E3000002500BF11E000250BE00A4800EBC4108C
:103E4000405D80F0FF00074901EBC4114855681C34
:103E500085B2802DF1DB601CC4B2082CEBDB00F0D6
:103E600003F870BD8C05002070B5002412E02146D7
:103E7000002000F07FF9002508E0084901EBC4119B
:103E8000485D012100F02CFB681CC5B2802DF4DBDD
:103E9000601CC4B2082CEADB70BD00008C05002059
:103EA00008B50121042000F069FD10208DF8030001
:103EB00003208DF802001020ADF8000069464E483E
:103EC000FEF7D8FF10208DF8030003208DF80200C4
:103ED0004020ADF8000069464748FEF7CBFF694631
:103EE0004548FEF7C7FF10208DF8030003208DF82A
:103EF00002000220ADF8000069463F48FEF7BAFF15
:103F000002F0A0FB002002F003FC02213A48FFF778
:103F100045F8642003F04CFF02213748FFF740F8D2
:103F20000021AE2000F0DCFA0021D52000F0D8FA04
:103F30000021502000F0D4FA0021A82000F0D0FA8F
:103F400000213F2000F0CCFA0021D32000F0C8FA75
:103F50000021084600F0C4FA0021402000F0C0FA19
:103F600000218D2000F0BCFA0021142000F0B8FAE6
:103F70000021202000F0B4FA0021022000F0B0FA65
:103F80000021A12000F0ACFA0021C82000F0A8FA1E
:103F90000021DA2000F0A4FA0021122000F0A0FA9B
:103FA0000021812000F09CFA0021EF2000F098FA17
:103FB0000021D92000F094FA0021F12000F090FABD
:103FC0000021DB2000F08CFA0021302000F088FA7C
:103FD0000021A42000F084FA0021A62000F080FA3D
:103FE0000021AF2000F07CFA0021084600F0C2F862
:103FF000FFF7D0FE08BD00000008014010B5002109
:10400000D52000F06DFA0021502000F069FA00215F
:10401000A82000F065FA00213F2000F061FA00219D
:10402000D32000F05DFA0021084600F059FA002183
:10403000402000F055FA00218D2000F051FA0021B7
:10404000142000F04DFA0021202000F049FA002150
:10405000022000F045FA0021A12000F041FA0021E1
:10406000C82000F03DFA0021DA2000F039FA0021E2
:10407000122000F035FA0021812000F031FA0021F1
:10408000EF2000F02DFA0021D92000F029FA0021BC
:10409000F12000F025FA0021DB2000F021FA0021B8
:1040A000302000F01DFA0021A42000F019FA0021B0
:1040B000A62000F015FA0021AF2000F011FA10BD83
:1040C0002DE9F0410746884615463C460026B8F1E2
:1040D000800F03DC802F01DC402D01DDBDE8F08185
:1040E0002846E91705EB5171C910C1F10701CEB29D
:1040F0003146204600F03EF808E01D4901EBC611AC
:10410000085D012100F0ECF9601CC4B24445F4DB09
:10411000701EC6B23C463146204600F02BF808E03F
:10412000134901EBC611085D012100F0D9F9601CAB
:10413000C4B24445F4DBE91705EB11710911A5EB95
:10414000011191B1701EC6B23C463146204600F0C6
:1041500011F808E0064901EBC611085D012100F0E5
:10416000BFF9601CC4B24445F4DB00BFB6E70000F1
:104170008C05002070B504460D4605F1B001C8B2AB
:10418000002100F0ADF9102141EA1410002100F0E7
:10419000A7F904F00F0141F00100002100F0A0F99F
:1041A00070BD00002DE9FC5F8146884615469B46A0
:1041B000DDF830A0CDF80480CDF80090A5F1200006
:1041C000C5B2BBF1080F03D0BBF1100F7ED132E0B6
:1041D00000242DE005EB450004EB400051490E5C46
:1041E00000271BE006F0800028B1524641464846B1
:1041F000FFF7D6FD0AE0BAF1000F01D1012000E07F
:104200000020024641464846FFF7CAFD7006060EEA
:1042100008F1010000F0FF08781CC7B2082FE1DBAD
:1042200009F1010000F0FF09DDF80480601CC4B250
:10423000062CCFDB58E0002452E004EB05100830D8
:1042400039490E5C00271BE006F0800028B1524679
:1042500041464846FFF7A4FD0AE0BAF1000F01D13C
:10426000012000E00020024641464846FFF798FD45
:104270007006060E08F1010000F0FF08781CC7B2B6
:10428000082FE1DB04EB051027490E5C00271BE03B
:1042900006F0800028B1524641464846FFF780FDAF
:1042A0000AE0BAF1000F01D1012000E0002002462F
:1042B00041464846FFF774FD7006060E08F10100FE
:1042C00000F0FF08781CC7B2082F00E00BE0DFDB2E
:1042D00009F1010000F0FF09DDF80480601CC4B2A0
:1042E000082CAADB00E000BF00BF0D98C0B1BBF1F5
:1042F000080F03D0BBF1100F10D107E00098083071
:10430000C1B2DDE90002FFF7DBFE08E000981030E3
:10431000C1B2DDE90002FFF7D3FE00E000BF00BF3D
:10432000BDE8FC9F860D0108AE0F01082DE9FF4F87
:1043300083B0054692469846DDE910674FF0000BC2
:1043400000246AE0A8EB0400401EC1B20A2005F078
:1043500053FDBAFBF0F00A21B0FBF1F201FB1209A8
:10436000BBF1000F2BD1A8F10100A04227DDB9F16C
:10437000000F22D1082E11D1012F01D1012000E020
:1043800000200121CDE90010062101FB0451C8B233
:10439000334620220499FFF705FF0DE0102E0BD1C4
:1043A0000120082101FB0451CDE90007C8B23346C2
:1043B00020220499FFF7F6FE2DE04FF0010B082EA6
:1043C00013D1012F01D1012000E000200121CDE90E
:1043D000001009F13001CAB2062101FB0451C8B234
:1043E00033460499FFF7DEFE14E0102E12D1012FA0
:1043F00001D1012000E000200121CDE9001009F1E8
:104400003001CAB2082101FB0451C8B233460499F5
:10441000FFF7C8FE00BF601CC4B2444592DB022F08
:1044200001D1FFF721FD07B0BDE8F08F2DE9FC5F5A
:1044300004460E4615469846DDE90C97A2464FF015
:10444000000B41E0B8F1080F03D0B8F1100F39D1DB
:104450001BE07A2C03DD544606F10800C6B2382E64
:1044600002DD4FF0010B2EE0012F01D1012000E011
:104470000020CDE900902A78082331462046FFF736
:1044800091FEA01DC4B26D1C1DE0782C03DD5446C6
:1044900006F11000C6B2302E02DD4FF0010B12E023
:1044A000012F01D1012000E00020CDE900902A7801
:1044B000102331462046FFF775FE04F10800C4B210
:1044C0006D1C00E000BF00BF287810B1BBF1000FE9
:1044D000B8D0022F01D1FFF7C7FCBDE8FC9F000058
:1044E00070B505460C4624B140210C48FEF758FD36
:1044F00003E040210948FEF751FD10210748FEF76F
:104500004DFD284602F0DAF810210448FEF748FD78
:1045100040210248FEF744FD70BD00000008014044
:104520001CB50C20FFF716FB01200090102362A29F
:10453000002101900846FFF779FF6048B0F81300AA
:104540005F49B1F80710884223D05D48B0F80710E2
:104550005A48A0F8131001200090102359A23021CE
:1045600001901820FFF762FF01200090102358A24D
:10457000202101900846FFF759FF01201021CDE9C5
:1045800000104F48B0F80720042330211820FFF70F
:10459000CDFE4B48417A4948407D81420ED0484883
:1045A000417A4648417501201021CDE90010444868
:1045B000427A022330214020FFF7B8FE4048817A3A
:1045C0003E48807D81420ED03D48817A3B488175CE
:1045D00001201021CDE900103948827A02233021D0
:1045E0005820FFF7A3FE364800783449097B8842FB
:1045F0000ED0334800783149087301201021CDE9ED
:1046000000102F480278022320210846FFF78EFE73
:104610002B4841782948407B81420ED02848417878
:104620002648417301201021CDE90010244842782A
:10463000022320213820FFF779FE214881781F4886
:10464000807B81420ED01E4881781C4881730120F6
:104650001021CDE900101A48827802232021502031
:10466000FFF764FE154800891C49098888420DD06F
:104670001A48008811490881012010210423CDE93E
:104680000010164802886020FFF750FE0B480068B3
:104690001349096888420ED011480068074908602C
:1046A000012010210823CDE900100D4800210268E7
:1046B0004020FFF73BFE1CBD475053004400002044
:1046C000E8010020202020202D20202D2020000087
:1046D00020203A20203A2020000000003C0000204A
:1046E000340000201CB57D480088401C7B490880B0
:1046F000084600882D287DD005DC48B10F287AD0E7
:104700001E2879D1A0E03C2877D04B28F9D1D6E0FB
:104710007348B0F813007349B1F80710884223D0EA
:104720007048B0F807106E48A0F8131001200090F0
:1047300010236DA2302101901820FFF777FE012091
:10474000009010236BA2202101900846FFF76EFE17
:1047500001201021CDE900106248B0F807200423A1
:1047600030211820FFF7E2FD5E48417A5C48407D29
:1047700081420ED05B48417A594841750120102191
:10478000CDE900105748427A022330214020FFF73C
:10479000CDFD5448817A5248807D81420ED05148E7
:1047A000817A4F48817501201021CDE900104D48D4
:1047B000827A022330215820FFF7B8FD494800785B
:1047C0004749097B88420ED046480078444908731F
:1047D00001201021CDE90010424802780223202157
:1047E0000846FFF7A3FD3F4841783D48407B8142A2
:1047F00013D003E043E026E062E05BE03948417813
:104800003748417301201021CDE900103548427826
:10481000022320213820FFF789FD32488178304873
:10482000807B81420ED02F4881782D4881730120F2
:104830001021CDE900102B4882780223202150203E
:10484000FFF774FD3CE03BE02D48008842F20F7119
:10485000884213DC224800892949098888420DD002
:10486000274800881E490881012010210423CDE932
:104870000010234802886020FFF758FD20E02148FF
:1048800000682149884214D8154800681D49096804
:1048900088420ED01B480068114908600120102191
:1048A0000823CDE900101748002102684020FFF7D7
:1048B0003DFD05E0FFF7A2FBFFF7D6FA00E000BFE1
:1048C00000BF06480088692806DD002003490880EB
:1048D00008460088401E08801CBD000042000020E1
:1048E00044000020E8010020202020202D20202D41
:1048F0002020000020203A20203A20200000000044
:104900003C00002034000020FFE0F505014908626A
:104910007047000000000E427047000029B1064AAF
:1049200052690243044B5A6104E0034A52698243CC
:10493000014B5A61704700000010024029B1064A3D
:10494000D2690243044BDA6104E0034AD26982432C
:10495000014BDA61704700000010024029B1064A9D
:1049600012690243044B1A6104E0034A126982434C
:10497000014B1A61704700000010024029B1064A3D
:1049800092690243044B9A6104E0034A92698243AC
:10499000014B9A61704700000010024029B1064A9D
:1049A000D2680243044BDA6004E0034AD2688243CF
:1049B000014BDA60704700000010024030B5002162
:1049C0000022002400232D4D6D6805F00C0121B15B
:1049D000042905D0082923D105E0294D056022E0EE
:1049E000274D05601FE0254D6D6805F47012234DBD
:1049F0006D6805F48034022505EB92421CB9214D07
:104A0000554305600BE01D4D6D6805F400351DB183
:104A10001C4D5543056002E0194D5543056002E009
:104A2000174D056000BF00BF144D6D6805F0F00123
:104A30000909154D6B5C0568DD4045600F4D6D68DB
:104A400005F4E061090A104D6B5C4568DD40856046
:104A50000A4D6D6805F46051C90A0B4D6B5C4568E1
:104A6000DD40C560054D6D6805F44041890B074D7B
:104A70006B5CC568B5FBF3F5056130BD0010024005
:104A800000127A0000093D007C0100208C0100200A
:104A900010B501460022002300204A11012A02D14C
:104AA000094C236806E0022A02D1074C236A01E080
:104AB000054C636A01F01F02012494401C400CB1B4
:104AC000012000E0002010BD0010024000210B4A30
:104AD00011700A4A203A82F82010012802D00428D6
:104AE00008D103E00121054A117004E00521034AC1
:104AF000117000E000BF00BF7047000020100240AE
:104B000001490860704700003C0442420249096ABA
:104B10000143014A11627047001002400A78027096
:104B20004A7842708A788270D1F80320C0F8032056
:104B3000B1F80720A0F807204A7A42728A7A827276
:104B4000CA7AC27270470000024909888143014A4B
:104B500011807047042800400348008840F010008E
:104B6000014908807047000004280040034800887D
:104B70004FF6EF7108400149088070470428004053
:104B800070B500260024002500F0A6F900F07CF89E
:104B900006463748B6FBF0F436480088A0423ED0BF
:104BA00034490C8040F2B27510E02846FEF7A4FEAE
:104BB00040B1B4F5B77F02D3A4F5B77404E0681C24
:104BC00085B206E0A4F26D14681C85B2B4F5B67F18
:104BD000EBD800BF2848A0F80750002517E0264969
:104BE000B1F80700FEF788FE30B1012D04D11D2C6D
:104BF00001D31D3C09E00CE02048405DA04203D8F1
:104C00001E48405D241A00E003E0681C85B21C2C9D
:104C1000E5D200BF681C18494872601C88721448AD
:104C2000B6FBF0F100FB11644FF46160B4FBF0F0EF
:104C3000114908704FF46160B4FBF0F100FB1140C2
:104C40003C21B0FBF1F00C4948704FF46160B4FBBB
:104C5000F0F100FB11403C21B0FBF1F201FB12002E
:104C6000054988700020064908800649088070BD03
:104C7000805101005E000020E80100207AB50008A4
:104C80005C00002024040040002103480188001F2C
:104C9000008841EA004070471C280040014600207F
:104CA000064A12880A40D0B2044A121F12880A40EB
:104CB00012B108B1012000E0002070470428004034
:104CC00010B50120FFF7EAFF08B1FFF759FF0220F6
:104CD000FFF7E4FF10B10220FFF736FF0520FFF7D2
:104CE00033FF00F0EFF810BD29B1064A12880243E5
:104CF000044B1A8004E0034A12888243014B1A8055
:104D000070470000002800401CB5002401214FF02E
:104D1000C050FFF713FE0120FFF7F8FD0120FFF759
:104D2000D5FE04E0601CC4B20A2003F041F8412023
:104D3000FFF7AEFE08B9FA2CF4DBFA2C01DB0120F8
:104D40001CBD4FF48070FFF7E1FE0120FFF7D8FE95
:104D500000F0B8F800F0C0F801210846FFF7C4FFE2
:104D600000F0B0F8FFF7F8FE47F6FF7000F09AF891
:104D700000F0A8F80020009003460C2209210190C1
:104D80004FF4FC6000F018F800F004F8FFF7F8FEAC
:104D90000020D5E708B503208DF8000001208DF82C
:104DA000010002208DF8020001208DF80300684602
:104DB000FEF77AFF08BD00002DE9F05F06460F46BA
:104DC00090469946DDE90AAB002440F2B270864273
:104DD00003DB40F63300864202DD0120BDE8F09F90
:104DE00040F2B2750AE02846FEF786FD10B122486F
:104DF000044401E021480444681C85B2B542F2DB5A
:104E0000781EC7B2002510E01D48405D40F2A32186
:104E1000484304EBC0143046FEF76EFD18B1012D77
:104E200001D118480444681C85B2BD42ECDBA8F1EE
:104E3000010040F2A321484304EBC014C9EB491020
:104E4000C0EB092004EB0014CAEB0A1004EB800449
:104E50005C4401214FF0C050FFF770FD0120FFF7C7
:104E600055FD00F02FF8204600F00EF800F02AF86B
:104E7000FFF786FE0020B1E70085E2018033E10103
:104E80007AB500088051010000B50246FFF764FEC4
:104E9000100C03490880091D0A80FFF767FE00BD5A
:104EA0001828004000B50246FFF756FEC2F3034043
:104EB00003490880091D0A80FFF758FE00BD000065
:104EC0000828004000BF0348008800F020000028A8
:104ED000F9D0704704280040074800884FF6F77162
:104EE00008400549088000BF0348008800F008001A
:104EF0000028F9D070470000042800402DE9F84F41
:104F000082468B464D480078012809D10E234C4A31
:104F10003B21D020FEF7FDFA00204849087005E04B
:104F20000E23474A3B21D020FEF7F3FA4449497843
:104F3000434A127852B241EA022006F03DF880F06E
:104F4000004440480168204606F096F8CBF800007F
:104F50003B49C9783A4A927852B241EA022006F0B7
:104F60002BF8044637480168204606F085F8CBF850
:104F7000040033494979324A127952B241EA022097
:104F800006F01AF880F000442E480168204606F02A
:104F900073F8CBF808002A49497A294A127A52B2A2
:104FA00041EA022006F008F880F000442648016833
:104FB000204606F061F8CAF800002149C97A204A63
:104FC000927A52B241EA022005F0F6FF04461E48EA
:104FD0000168204606F050F8CAF804001849497BD9
:104FE000174A127B52B241EA022005F0E5FF80F039
:104FF000004415480168204606F03EF8CAF808004B
:105000000F49C9790E4A927952B241EA022005F05D
:10501000D3FF009005F06EFE06460C4A0C4B05F0DF
:10502000C5F9044600220B4B05F00CF9804605F04B
:10503000D7F809490860BDE8F88F0000500100204A
:1050400040050020C0000020BC000020CDCCCCCC0E
:10505000CC6C744000003940300100207CB505461E
:10506000002400200090019000260DB1022600E0EF
:1050700000261848406900F0007008B10E207CBD81
:105080001549098888B26946FDF74CFE04460CB103
:105090002046F4E7019800F48020C0B10E48008853
:1050A00002040121372000F02BF83720FDF75CFBCC
:1050B00004460CB12046E2E732460121062000F00A
:1050C0001FF80620FDF750FB04462046D7E72520B1
:1050D000D5E70000008001406800002005494968CC
:1050E00021F0FF01034A51601146496801435160B4
:1050F000704700000080014000B500F00DFC00BDCD
:1051000010B50E4B9A60DB686FF30A030B4CE3603B
:105110002346DB6800F03F042343084CE36023464A
:10512000DB6843EA8113E3602346DB68E3602346E0
:10513000DB6843F48063E36010BD00000080014041
:1051400030B5104C606221F07E440E4DAC622C46AE
:10515000E46A24F0F704EC622C46E46A44EA0214A0
:10516000EC622C46E46AEC622C46E46A03F001052A
:1051700044EA4504034DEC622C46E46A44F0010421
:10518000EC6230BD0080014010B5234B1B6843F436
:105190007043214C2360204B40331B6823F00103F4
:1051A0001D4C4034236023461B6847F6F074A3432C
:1051B000194C4034236023461B6843EA02132360E2
:1051C00023461B68236023461B68236023461B6815
:1051D00043F08003236023461B6843F4007323607D
:1051E00023461B6843F40063236023461B6843F493
:1051F000005323608B08241D2360084B241D23606B
:10520000231D1860044B40331B6843F00103024C1C
:105210004034236010BD000004040240808001403F
:1052200030B50446002516480078032801D1272010
:1052300030BD1348007838B111480078012803D0F8
:105240000F480078022818D1022C01D32720EFE75D
:10525000E0B2FFF703FF05467DB90A48406820F435
:10526000C0500849486008464068A1B240EAC120E1
:10527000044948600846406848602846D8E700006E
:105280006400002000800140F0B5014600200022AB
:10529000BE4B1B7881F85630BD4B1B88A1F85430AB
:1052A000BC4B1B681A0E93090B70C2F383034B703F
:1052B00002F003038B70B74B1B68C3F30742CA703D
:1052C000B44B1B88C3F307220A71B24B1A784A7198
:1052D0005B681A0E1301CB80AE4B5B68C3F30742C9
:1052E000CB8843EA1213CB8002F00F030B72A94B59
:1052F0009B88C3F30722D3094B72C2F380138B72CE
:10530000C2F34013CB72C2F300130B7300234B7331
:105310009E4B1B783BB19D4B1B78012B03D09B4BC5
:105320001B78032B4FD193071B0D0B61994B1A79F7
:105330000B6943EA82030B61964B9B681A0E0B695B
:1053400043EA92130B61C2F3C2030B7502F0070329
:105350004B75904B9B68C3F3074253098B75C2F39F
:105360008203CB7593075B0F0B768A4B1B89C3F3C4
:1053700007220B7E43EAD2130B760B695B1C0024D9
:10538000C1E912340B7E9B1C012404FA03F3DC17E1
:10539000D1E91256A5FB037C06FB03C305FB0433CE
:1053A000C1E912730C7A0123A3400B650024D1E9F3
:1053B00012650B6DA6FB037C05FB03C306FB0433E0
:1053C000C1E912732EE0714B1B78022B2AD1714B6D
:1053D0001A7993069B0A0B616E4B9B681A0E0B6938
:1053E00043EA02230B616B4B9B68C3F307420B69D3
:1053F00013430B61674B1B89C3F307220B695B1CCB
:105400004FF40074A3FB04464FF480630025A4FB13
:10541000037C06FB03C304FB0533C1E912734FF49D
:1054200000730B65C2F3801301F8193F93065B0EFE
:105430004B70584B1A7A4B7843EAD2134B7002F0F8
:105440007F038B70534BDB681A0ED309CB70C2F30A
:1054500041130B71C2F382034B7193071B0F8B71C6
:105460004C4BDB68C3F307428B7943EA92138B7191
:10547000C2F34013CB7100230B7202F001034B7295
:10548000444B9B89C3F30722D3098B72C2F3801369
:10549000CB72C2F340130B73C2F300134B73C2F30E
:1054A00081038B7302F00303CB733A4B1A7B5308CF
:1054B0000B7401234B74384B1B681A0ECA741939CC
:1054C000354B1B68C3F307421402CC85324B1B8853
:1054D000C3F30722CB8D1343CB852F4B1A781406C9
:1054E0000C635B681A0E0B6B43EA02440C632A4B95
:1054F0005B68C3F307420B6B43EA02240C63264B41
:105500009B88C3F307220B6B13430B63224B1A795F
:1055100034235A54204B9B681A0E35235A541E4B81
:105520009B68C3F3074214068C631B4B1B89C3F3B0
:1055300007228B6B43EA02448C63174B1A7A8B6BFE
:1055400043EA02248C63144BDB681A0E8B6B134303
:105550008B63114BDB68C3F307423C235B5C43EA7C
:1055600012143C235C5413071C0DCC870A4B9B89F7
:10557000C3F30722CB8F1343CB87074B1A7B540807
:1055800040235C54012441235C54F0BD640000209E
:1055900068000020F80100200802002038B500242F
:1055A0003648806940F010003449886108468069B7
:1055B00040F0200088610846406940F480604861FE
:1055C0000846406940F0020048612D4840686FF38A
:1055D00013002B494860084640682A490843284977
:1055E00048602948006820F4706027490860084630
:1055F000006840F43060086000202449086048607A
:105600008860C86048628862C86221488863002058
:10561000C86331208DF8000001208DF803000020C0
:105620008DF801008DF802006846FEF73DFB00F0A2
:10563000B7F8044614B900F031F804461CB915480F
:10564000FFF722FE044634B91249B1F85410080499
:1056500000F092FC04461CB90120FFF7E1FD04466E
:105660001CB10D480078032806D10320FFF736FD52
:10567000012000F08DFC0446204638BD0010024099
:1056800000100140BBBB0B00001401400080014032
:10569000FF07C000180200206400002018B5002495
:1056A000012000903948006800F0030008B9252067
:1056B00018BD37480078042817D0002203210220A3
:1056C000FFF71EFDFDF77CF804460CB12046EFE71E
:1056D0002E4840692F4908602C48806948602B4853
:1056E000C06988602948006AC8602948007858B1B4
:1056F00027480078012807D025480078062803D0DD
:105700002348007802280CD1002201210320FFF752
:10571000F7FC69460320FDF79DF804460CB12046CE
:10572000C6E71B48007803280CD1BDF8000002042E
:1057300001210320FFF7E4FCFDF742F804460CB119
:105740002046B5E71248007804281DD0BDF80000B7
:1057500011490860BDF80000020403210920FFF789
:10576000CFFCFDF72DF804460CB12046A0E7074812
:1057700040690A4908600548806948600348C06973
:1057800088600248006AC860002091E700800140FC
:10579000640000200802002068000020F8010020BA
:1057A0002DE9F0430027002400260025A046A1464D
:1057B00000205549486008464068486008464068EF
:1057C00048600846406848600846406848600846A7
:1057D00040684860B220FFF781FC03204A49086016
:1057E0000846406840F48070486000BF0BE000222B
:1057F00011461046FFF784FCFCF79CFF044604B9F1
:1058000003E0781CC7B24A2FF1DB00BF14B1204679
:10581000BDE8F0834FF4D57201210820FFF770FC3A
:10582000FDF762F8044624B90120384908704FF0AA
:105830008049002201213720FFF762FC3720FCF766
:1058400093FF04467CBB20E0002201213720FFF7B4
:1058500057FC3720FCF788FF04460CB12046D7E7F9
:105860002B4849EA000201212920FFF749FCFCF7F7
:10587000D5FF04460CB12046CAE7234846690120FB
:1058800080EAD67080F001086D1CB8F1000F03D1DA
:105890004FF6FF708542D7D34FF6FF70854203D392
:1058A0001B242046B4E707E006F08040061E28D0FF
:1058B00002201649087024E012E0164A0121084629
:1058C000FFF71EFCFCF7AAFF04460CB120469FE739
:1058D0000D484669012080EAD67080F001086D1CF1
:1058E000B8F1000F03D14FF6FF708542E5D34FF6B4
:1058F000FF70854202D31B24204689E70320034919
:105900000870204684E70000008001406400002009
:10591000000010800080FF8000B54D48406B00F40F
:10592000807020B34B48007801280AD10022012161
:105930000C20FFF7E5FB0C20FCF716FF464908702A
:1059400002E00020444908704148806B40F48070B8
:105950003F4988630846C06B4CF23A3188433C4962
:10596000C86301203D4908703B48007800BD3848B5
:10597000406B00F0020080B13548806B40F00200BF
:10598000334988630846C06B4CF23A31884330494A
:10599000C863022030490870E8E72D48406B00F0EA
:1059A000080080B12A48806B40F0080028498863CD
:1059B0000846C06B4CF23A3188432549C86304203D
:1059C00025490870D2E72248406B00F0200080B1E2
:1059D0001F48806B40F020001D4988630846C06B5B
:1059E0004CF23A3188431A49C86306201A490870B4
:1059F000BCE71748406B00F0100080B11448806B82
:105A000040F01000124988630846C06B4CF23A31EE
:105A100088430F49C86305200F490870A6E70C4862
:105A2000406B00F4007080B10948806B40F4007056
:105A3000074988630846C06B4CF23A3188430449F1
:105A4000C86307200449087090E700208EE7000033
:105A5000008001406D0000206E0000206F000020DB
:105A60002DE9F04F06460F4614464FF00008C14698
:105A70003546C24616B92620BDE8F08F002072498F
:105A8000C86272480078022801D104027F0A00230C
:105A90001A4619466E48FFF753FB6B48406900F001
:105AA000007008B10E20E7E7002C17DDB4F5006F99
:105AB00014DC601E204088B9204601F0ABFF83460D
:105AC000224601211020FFF71BFB1020FCF74CFEA3
:105AD0008046B8F1000F03D04046CDE72620CBE743
