:020000040800F2
:10800000E0A20020DD810008AF9B00086597000812
:10801000F199000825890008D9CF00080000000068
:1080200000000000000000000000000085C80008FB
:108030008790000800000000A1A90008FDCA000800
:10804000F7810008F7810008F781000831AD0008CA
:10805000F7810008F7810008F7810008899000087F
:10806000F7810008F7810008F7810008F781000810
:10807000F7810008F7810008F7810008898D000862
:10808000F7810008F7810008F7810008F7810008F0
:10809000F7810008F7810008F7810008F7810008E0
:1080A000F7810008F7810008F7810008F7810008D0
:1080B00071CB0008F781000891CB0008F781000818
:1080C000F7810008F7810008F7810008F7810008B0
:1080D000F781000801CC0008F7810008F78100084B
:1080E000F7810008F7810008F7810008F781000890
:1080F000F7810008F7810008F7810008F781000880
:10810000F7810008C1B00008F7810008F781000876
:10811000F7810008F7810008F7810008F78100085F
:10812000F7810008F7810008F7810008F78100084F
:1081300000F002F800F042F80AA090E8000C824437
:108140008344AAF10107DA4501D100F037F8AFF214
:10815000090EBAE80F0013F0010F18BFFB1A43F025
:1081600001031847DCDD0000FCDD0000103A24BFED
:1081700078C878C1FAD8520724BF30C830C144BF8C
:1081800004680C60704700000023002400250026CE
:10819000103A28BF78C1FBD8520728BF30C148BF6A
:1081A0000B607047642900F0C380732900F0FF82E0
:1081B000002070471FB51FBD10B510BD00F032FB89
:1081C0001146FFF7F7FF06F029FD00F050FB03B45E
:1081D000FFF7F2FF03BC04F078FF00000948804776
:1081E00009480047FEE7FEE7FEE7FEE7FEE7FEE799
:1081F000FEE7FEE7FEE7FEE704480549054A064BB1
:108200007047000011CB000831810008E09C00207D
:10821000E0A20020E09E0020E09E0020704710B504
:108220004C1084EA530404D54042C1F1000138BF28
:10823000491E1B4204D55242C3F1000338BF5B1EE6
:1082400000F0B6F914F0804F04D04042C1F10001B3
:1082500038BF491E14F0004F04D05242C3F100034E
:1082600038BF5B1E10BD00000FB41CB5074B06AA3B
:108270007B4469460090059800F06FFA002069463B
:1082800000F07EFA1CBC5DF814FB00000D05000038
:1082900070B5044685690068C10601D5302600E046
:1082A0002026C00707D070BDD4E901213046904791
:1082B000206A401C20626D1EF6D570BD70B5044664
:1082C00085690078C00707D170BDD4E9012120205D
:1082D0009047206A401C20626D1EF6D570BD70B5B7
:1082E0000C460546012A05D02878800600D5EA69A3
:1082F000002302E0012305E05B1C934202D2E05C14
:108300000028F9D1A869E618C01AA861286A18449B
:1083100028622846FFF7BCFF04E0D5E9012114F8E4
:10832000010B9047B442F8D32846FFF7C7FF70BD52
:108330002DE9F0410646002410687529314616A53E
:1083400010D0AFF30080002802DA404213A507E006
:1083500031688A0701D512A502E0490704D511A5A5
:10836000012401E0AFF3008000210A2206F1240776
:1083700009E0B0FBF2FCB0FBF2F302FB1C00303072
:1083800078541846491C0028F3D123462A46304623
:10839000BDE8F04100F083B9000000002D000000AE
:1083A0002B000000200000002DE9F05F8946044604
:1083B0004FF0000ADFF824B1FB44C0F820A02046AB
:1083C000E168884700287DD0252806D0D4E901211E
:1083D0009047206A401C2062F1E700255F46204656
:1083E000E16888472028064607DB312E05D2B819F8
:1083F00010F8200C08B10543F1E7A80701D525F0D6
:108400000405C4F81CA00027C4F818A02A2E09D01F
:10841000304604F053FE38B304EB8708303EC8F80A
:10842000186019E059F8041B204604EB870291619B
:10843000E1688847012F064618D1E069002820DA54
:1084400025F020051DE0D8F8180000EB800006EBB1
:1084500040003038C8F818002046E16888470646D2
:1084600004F02CFE0028EED1012F0AD02E2E08D1C8
:108470002046E16888477F1C0646022F45F020050C
:10848000C4DBA069002803DA404245F00105A06181
:10849000E80701D025F01005A6B1A6F14100192882
:1084A00002D8203645F400654A463146204625600C
:1084B0004D46FFF777FE60B1012807D0ED1D25F08E
:1084C000070000E007E000F1080978E705F104097A
:1084D00075E730467AE7206ABDE8F09F7ADA000057
:1084E00010B5431C02E010F8011B71B18107FAD1ED
:1084F0004FF0013202C88C1A8C4314EAC211F9D031
:10850000C01A0A0603D0C01E10BDC01A10BD0A044E
:1085100001D0801E10BD0902FCD0401E10BD032AF0
:1085200040F2308010F0030C00F0158011F8013B90
:10853000BCF1020F624498BF11F801CB00F8013B77
:1085400038BF11F8013BA2F1040298BF00F801CB3B
:1085500038BF00F8013B11F0030300F02C81083A0A
:10856000C0F0088051F8043B083A51F804CBA0E869
:108570000810F5E7121D5CBF51F8043B40F8043BBE
:10858000AFF30080D20724BF11F8013B11F801CBF3
:1085900048BF11F8012B24BF00F8013B00F801CBC4
:1085A00048BF00F8012B704770477047704770470D
:1085B00053EA020C00F069802DE9F04B4FF0000601
:1085C000002B1FBFB3FA83F503FA05F424FA05F66E
:1085D0005E4012BF1643B2FA82F502FA05F4C5F105
:1085E00020051EBF22FA05FC44EA0C04203556EA99
:1085F000044C4FEA144418BF641C4FF000084FF0BD
:108600000009904271EB030C39D3002919BFB1FA6C
:1086100081F701FA07F6B0FA80F700FA07F6C7F11A
:1086200020071EBF20FA07FC46EA0C062037B6FBDF
:10863000F4FCA7EB0507103F07F01F0BCBF120065A
:108640000CFA0BFB2CFA06F644BFB3460026202F8B
:10865000A4BF5E464FF0000B5BEA060C08BF4FF06C
:10866000010B19EB0B09ABFB027C48EB0608C01BA6
:1086700006FB02CC0BFB03CC71EB0C01C1E70B46F4
:10868000024641464846BDE8F08B13B54FF0000066
:108690004FF00001AFF30080BDE81C4070472DE9AA
:1086A000F0470D4699469246044600F124080168B9
:1086B000880604D5E06921F01001216000E0012066
:1086C000A84201DD471B00E00027A1697A1902EBEF
:1086D0000900081AA0612078C00602D42046FFF7DE
:1086E000D7FD002608E0D4E901211AF806009047DA
:1086F000206A401C761C20624E45F4DB2078C006C0
:108700000AD52046FFF7C4FD06E0D4E90121302058
:108710009047206A401C2062381EA7F10107F4DC54
:1087200007E0D4E9012118F805009047206A401CB1
:108730002062281EA5F10105F3DC2046FFF7BEFDEF
:108740002078000602D50220BDE8F0870120FBE773
:1087500001694A1C02610878704700B58FB0CDE905
:1087600001310021059105497944CDE903101146F5
:108770006846FFF719FE0FB000BD0000E5FFFFFFE0
:108780000A6802F8010B0A60704710B5436913B11B
:10879000AFF3008001E0FFF7A2FD012010BD1278C9
:1087A00000F124010A7000224A700122EDE71168ED
:1087B0004FF0FF32E9E710B5203AC0F00B80B1E886
:1087C0001850203AA0E81850B1E81850A0E8185006
:1087D000BFF4F5AF5FEA027C24BFB1E81850A0E80F
:1087E000185044BF18C918C0BDE810405FEA827C29
:1087F00024BF51F8043B40F8043B08BF7047D20740
:1088000028BF31F8023B48BF11F8012B28BF20F8E0
:10881000023B48BF00F8012B70470000004870473A
:108820007C9C00207546FFF7F9FFAE4605006946BF
:10883000534620F00700854618B020B5FFF7DCFC52
:10884000BDE820404FF000064FF000074FF0000851
:108850004FF0000B21F00701AC46ACE8C009ACE8D2
:10886000C009ACE8C009ACE8C0098D46704710B536
:108870000446AFF300802046BDE81040FFF7A7BCD8
:1088800010B586B0044602F0B3F90D4880780C4963
:1088900049780B4A12780A4B9B7ACDE90132CDE92F
:1088A00003100748407A00900548B0F807300548A3
:1088B00005A102682046FFF7D7FC06B010BD0000F6
:1088C0002401002068000020303A2F25732F4261D8
:1088D00073655F53746174696F6E5F25303464250E
:1088E00030326425303264253032642530326425DC
:1088F0003032642E7478740070B502460023154639
:108900000C4600BF09E028782678B04201D001204B
:1089100070BD6D1C641C581C83B2B3F5E77FF2D3A5
:108920000020F5E700BFFEE72DE9F04105460027EE
:108930000024002602F0E0F907463E48B7FBF0F4B9
:108940003D480088A0423CD03B490C8040F2B276C2
:1089500010E0304600F050FF40B1B4F5B77F02D3CD
:10896000A4F5B77404E0701C86B206E0A4F26D149E
:10897000701C86B2B4F5B67FEBD800BFA5F80760CF
:10898000002616E0B5F8070000F036FF30B1012EE2
:1089900004D11D2C01D31D3C09E00CE02748805D6B
:1089A000A04203D82548805D241A00E003E0701C33
:1089B00086B21C2CE6D200BF701C6872601CA872C4
:1089C0000AE01F48B0F80700A5F807001C48407AE5
:1089D00068721B48807AA8721648B7FBF0F100FB5A
:1089E00011744FF46160B4FBF0F028704FF46160D3
:1089F000B4FBF0F100FB11403C21B0FBF1F06870DA
:108A00004FF46160B4FBF0F100FB11403C21B0FB7E
:108A1000F1F201FB1200A8700A4800880A4909888F
:108A200001EB4102C2EBC11100EBC100C5F803002C
:108A3000BDE8F081805101005800002018F60008C0
:108A4000240100202404004054000020184800881D
:108A500000F4004088B11648008820F40040144912
:108A60000880084600886FF30D0040F0640008801D
:108A70000846008840F4804008800D48008800F4D3
:108A8000804098B10A480088C0F30D0040B1084802
:108A90000088401E0649088000200649086005E05D
:108AA0000120044908600020014908807047000047
:108AB00000000020948121420146C87870470021BF
:108AC0000170C17081704170704710B502460B464D
:108AD0001046FFF7F1FF0A2801DB022010BD1978CC
:108AE000507800EB4004101D00F82410597850789D
:108AF00000EB4004101D00EB840041709978507821
:108B000000EB4004101D00EB84008170D3F80310CB
:108B1000507800EB4004101D00EB8400C0F80310F7
:108B2000B3F80710507800EB4004101D00EB8400F0
:108B3000A0F80710597A507800EB4004101D00EBA4
:108B400084004172997A507800EB4004101D00EBCC
:108B500084008172D97A507800EB4004101D00EB3C
:108B60008400C172D078401CD0705078401C507086
:108B700050780A2801DB002050700020AEE700008A
:108B8000002242F2107105E00948406B00F08000BD
:108B900000B103E0081EA1F10101F5D100BF09B940
:108BA0000320704740F2FF50014B98631046F8E7EE
:108BB00000800140024605E01348416B01F045008A
:108BC00000B100E0F8E700BF01F0040020B104208C
:108BD0000D4B98630320704701F0010018B101208C
:108BE000094B9863F7E708480069904201D01020CC
:108BF000F1E740F2FF50044B9863184640690823A0
:108C00001840C0B2E7E700000080014010B5002026
:108C100042F2107205E0134B596B01F0450303B1AA
:108C200003E0131EA2F10102F5D100BF12B101F061
:108C300004033BB103200B4B9B6B43F00403094C33
:108C4000A36310BD01F0010333B10120054B9B6B01
:108C500043F00103034CA36340F2FF53014CA363B1
:108C600000BFEEE70080014005E00C48416B01F0D9
:108C7000450000B100E0F8E700BF01F0040038B1A2
:108C80000648806B40F00400044A9063032070475C
:108C900040F2FF50014A90630020F8E70080014055
:108CA00070B503460C46002505E02148426B02F0F2
:108CB000450000B100E0F8E700BF02F0040038B161
:108CC0001B48806B40F00400194EB063032070BD58
:108CD00002F0010038B11648806B40F00100144EDC
:108CE000B0630120F3E712480069984201D01020D8
:108CF000EDE740F2FF500E4EB0633046416901F49B
:108D0000604018B9080C20802846E0E701F40050C4
:108D100008B11320DBE701F4804008B11020D6E74A
:108D200001F4004008B10F20D1E72846CFE700004A
:108D30000080014010B5002042F2107205E0114B96
:108D4000596B01F0450303B103E0131EA2F10102C8
:108D5000F5D100BF12B101F004033BB10320094B70
:108D60009B6B43F00403074CA36310BD01F0400369
:108D700033B10020034B9B6B43F04003014CA363D2
:108D800000BFF2E70080014010B54FF4003000F062
:108D90003DF900284FD04FF4C02000F065F82E4870
:108DA000007800F0800018BB2B48007840F080006D
:108DB000294908700846007800F0010058B90846B3
:108DC000007840F0010008704FF4405123480068DB
:108DD00000F00AF92FE02048007820F001001E4939
:108DE00008704FF440511E48006800F0FDF822E082
:108DF0001C480088401C1B4908801748007800F078
:108E0000010060B91448007840F001001249087070
:108E10004FF440511148006800F0E6F80BE00E48AE
:108E2000007820F001000C4908704FF440510C48C4
:108E3000006800F0D9F84FF4002000F0E7F850B1D6
:108E40004FF4002000F010F80648008844F6206136
:108E500008440449088010BD9C00002098000020B0
:108E6000940000203400002000F0805111B103492B
:108E7000086001E0024948607047000004040240B5
:108E80000000024021B1026842F00102026004E0E9
:108E900002684FF6FE731A400260704701684FF691
:108EA000FE72114001600021016041608160C1607B
:108EB0004B49884208D14A490839496841F00F01B5
:108EC000474A083A51608AE045491431884208D13E
:108ED00043490839496841F0F001414A083A516074
:108EE0007DE03F492831884208D13D490839496829
:108EF00041F470613A4A083A516070E038493C31B7
:108F0000884208D136490839496841F47041344AE9
:108F1000083A516063E032495031884208D1304903
:108F20000839496841F470212D4A083A516056E0E9
:108F30002B496431884208D129490839496841F4EC
:108F40007001274A083A516049E025497831884242
:108F500008D123490839496841F07061204A083A2C
:108F600051603CE01F49884206D1011F096841F069
:108F70000F01021F116032E01A491431884208D1F2
:108F80001849091F096841F0F001164A121F1160C3
:108F900025E014492831884208D11249091F09687F
:108FA00041F470610F4A121F116018E00D493C3105
:108FB000884208D10B49091F096841F47041094AE8
:108FC000121F11600BE007495031884207D1054953
:108FD000091F096841F47021024A121F116070478D
:108FE000080002400804024070B505460C46002106
:108FF0000548FFF747FF044858384566C465012116
:109000000148FFF73FFF70BD5800024001460020B5
:10901000002201F0805313B1054B1A6801E0054BA3
:109020001A6802EA01030BB1012000E0002070473A
:1090300000040240000002401AB103680B430360C1
:1090400002E003688B430360704710B5002202689A
:1090500047F6F0739A430C6A8B6823430C692343E9
:109060004C6923438C692343CC6923434C6A2343D3
:109070008C6A23431A430260CB6843600B688360A9
:109080004B68C36010BD704700B587B004A8FFF7F8
:109090004BFC0221174800F0A2F930BB16480078BB
:1090A00018BB04A901A801F071FD01AB9DF80400F3
:1090B000124908709DF8050048709DF806008870F8
:1090C000DDF80700C1F80300BDF80B00A1F80700A8
:1090D0009DF80D004872987A8872D87AC872052077
:1090E00005490870002006490880022000F00AF8AF
:1090F00007B000BD000C0140020000200C01002060
:109100002408004001490860704700001404014031
:109110000146B1F80100704700210170A0F801106C
:10912000A0F80310A0F805107047B0F80330C21D76
:10913000D15430F8012F521C02804288401EC72AA9
:1091400003DB0022A0F8032004E0B0F80320521C47
:10915000A0F80320704770B504460D462046FFF77F
:10916000D7FFC82801DB022070BD29462046FFF743
:10917000DCFF0020F8E70000FCB507460D4600269E
:10918000002400200090019008220121102001F00D
:109190009BFF1020FFF70EFD04460CB12046FCBDDE
:1091A0003A040121372001F08FFF3720FFF702FD3D
:1091B00004460CB12046F2E701230322082140486F
:1091C00001F0A2FF00220121332001F07DFF3320B6
:1091D000FFF7F0FC04460CB12046E0E70DE039480B
:1091E000406B00F4001040B13648803000684DF804
:1091F0002600761C022E00D306E03248406B40F277
:109200002A6108400028EAD000BF2E48406B00F0D9
:10921000080038B12B48806B40F00800294988636A
:109220000420BCE72748406B00F0020038B1254815
:10923000806B40F00200234988630220AFE7214899
:10924000406B00F0200038B11E48806B40F02000D9
:109250001C4988630620A2E71A48406B00F400709E
:1092600038B11848806B40F40070164988630720B5
:1092700095E740F2FF501349886300980006009973
:1092800001F47F4140EA0120009901F47F0140EAA6
:109290001120009940EA1160686001980006019968
:1092A00001F47F4140EA0120019901F47F0140EA85
:1092B0001120019940EA1160286020466FE7000004
:1092C000FFFF0F00008001402DE9F041024600251C
:1092D0000026002000230024002791F803C00CF092
:1092E0000F0591F803C00CF0100CBCF1000F03D077
:1092F00091F802C04CEA050591F800C0BCF1000FDE
:1093000031D0146800202BE04FF0010C0CFA00F370
:10931000B1F800C00CEA03069E4220D183004FF052
:109320000F0C0CFA03F7BC4305FA03FC4CEA0404E7
:1093300091F803C0BCF1280F06D14FF0010C0CFAD4
:1093400000FCC2F814C00AE091F803C0BCF1480F59
:1093500005D14FF0010C0CFA00FCC2F810C0401C03
:109360000828D1D31460B1F800C0BCF1FF0F34DD80
:10937000546800202EE000F1080C4FF0010808FAB4
:109380000CF3B1F800C00CEA03069E4221D1830021
:109390004FF00F0C0CFA03F7BC4305FA03FC4CEA40
:1093A000040491F803C0BCF1280F05D100F1080CAA
:1093B00008FA0CF8C2F8148091F803C0BCF1480F09
:1093C00007D100F1080C4FF0010808FA0CF8C2F8B8
:1093D0001080401C0828CED35460BDE8F0810246BE
:1093E000002093680B400BB1012000E00020704783
:1093F00041617047016170470146C81C704770B5F4
:1094000004461025207800F0020008B9102070BD35
:10941000207820F002002070207840F0200020709A
:109420002046FFF7E9FF064600F03AF905462078A6
:1094300020F020002070204600F07BF82846E6E768
:1094400030B504460D46207800F0200000286CD18D
:10945000207800F0010018B3207800F0400070B1CF
:109460000A2D08D1207840F002002070207820F0EA
:109470000100207059E0204600F05BF855E00D2D0A
:1094800004D1207840F0400020704EE0294620466C
:1094900000F056F9002848D0204600F04AF844E091
:1094A000542D06D1002060702946204600F048F96E
:1094B0003BE0204600F03AF8002836DD492D09D17E
:1094C000204600F033F8012804D12946204600F058
:1094D00037F92AE04D2D09D1204600F027F802285F
:1094E00004D12946204600F02BF91EE0452D09D174
:1094F000204600F01BF8032804D12946204600F03E
:109500001FF912E0412D10D1204600F00FF8042879
:109510000BD12946204600F013F9207820F00200F4
:109520002070207840F00100207030BD014648785E
:10953000704700214170FF21817000210170704748
:1095400070B5002404E0601CC4B2C82004F04EF8DA
:1095500000F0BCF808B13C2CF5DB3C2C01DB012011
:1095600070BD00240DE0094951F82400FEF7B8FF52
:1095700085B2064951F82400294603F01FFD601CFE
:10958000C4B2062CEFDB0020EAE700000400002054
:1095900070B5002404E0601CC4B2C82004F026F8B2
:1095A00000F094F808B13C2CF5DB3C2C01DB0120E9
:1095B00070BD06480068FEF793FF85B22946034850
:1095C000006803F0FBFC0020F2E700002000002010
:1095D00008B50121082001F019FA8020ADF800003B
:1095E00004208DF8030003208DF80200694602482C
:1095F000FFF76AFE08BD0000000C014070B504468C
:109600000D46A079401BA071A0793C280DDBA07904
:109610003C38A0716079401C607160793C2804DBA3
:10962000002060712079401C207120790830207161
:109630002079182830DB207918382071E078401C18
:10964000E070A078022814D1208800F0D5F8012815
:1096500007D1E0781D281FDD0120E0700320A070F5
:109660001AE0E0781C2817DD0120E0700320A070CC
:1096700012E0E078A178094A515C88420CDD0120B3
:10968000E070A078401CA070A0780C2804DD0120B8
:10969000A0702088401C208070BD000018F60008D3
:1096A00010B5044621460748006800F0E7F830B9D5
:1096B00080210548FFF793FE08B9002010BD102057
:1096C000FCE7000078000020000C014010B51A48AB
:1096D0000068FFF721FD19480068FEF701FF84B21A
:1096E00021461648006803F069FC4FF4FA7003F055
:1096F0007DFF11480068FFF70BFD1E2819DB0E489F
:109700000068FFF705FD001F0B490968C91D085CCB
:109710004F280CD108480068FFF7FAFCC01E064924
:109720000968C91D085C4B2801D1002010BD01202B
:10973000FCE70120FAE70000800000202400002060
:1097400000B502460B461046FFF7F0FE942801DBF9
:10975000102000BD5178D01C43545078401C5070EC
:109760000020F6E700BFFEE71CB50446002001908C
:1097700000901F480088020401210D2001F0A4FC84
:109780001C48406B009002E01A48406B0090009823
:1097900000F045000028F7D0009800F0010038B133
:1097A0001448806B40F001001249886301201CBD01
:1097B000009800F0040038B10E48806B40F00400BF
:1097C0000C4988630320F2E70A4800690D2801D09C
:1097D0001020ECE740F2FF500649886308464069D4
:1097E00001900198C0F3432020700020DFE70000C3
:1097F00060000020008001400146CA1701EB927210
:109800009210A1EB820292B9642091FBF0F200FB6E
:10981000121050B94FF4C87091FBF0F200FB121017
:1098200008B9012070470020FCE70120FAE700207A
:10983000F8E7000008B50121082001F0E7F8202032
:10984000ADF8000010208DF8030003208DF8020011
:1098500069460948FFF738FD4020ADF80000694629
:109860000548FFF731FD20210348FFF7C3FD4021E4
:109870000148FFF7BFFD08BD000C0140F8B50646E2
:109880000D460421284600F0F9F80446FF2C14D0B8
:10989000285D46280DD1601C285C492809D1A01CF0
:1098A000285C4E2805D1E01C285C452801D1012008
:1098B00000E0002018B90120F8BD0120FCE70C21D0
:1098C000284600F0DBF80446FF2C0CD02819694626
:1098D00000F0F8F807469DF800100A2000F0E7F8BD
:1098E00097FBF0F701E00120E6E70D21284600F0A4
:1098F000C5F80446FF2C05D02819694600F0E2F8A7
:10990000308001E00120D7E70E21284600F0B6F8AC
:109910000446FF2C05D02819694600F0D3F8B07032
:1099200001E00120C8E70F21284600F0A7F804460F
:10993000FF2C05D02819694600F0C4F8F07001E04A
:109940000120B9E71021284600F098F80446FF2CC2
:1099500005D02819694600F0B5F8307101E0012002
:10996000AAE71121284600F089F80446FF2C05D00B
:109970002819694600F0A6F8707101E001209BE704
:109980001221284600F07AF80446FF2C09D0281945
:10999000694600F097F84FF47A7190FBF1F0B071DE
:1099A00001E0012088E739463046FFF727FE002016
:1099B00082E700000146072323EA01021202054B59
:1099C00018684FF6FF031840034B18431043014B30
:1099D000186070470CED00E00000FA05024A0A40EA
:1099E0000243024B1A60704780FFFF1F08ED00E042
:1099F00000BFFEE72DE9F041064600270024A046FF
:109A0000002500BF29E0002423E016F8018B002583
:109A10001BE008F0800048B13F20A0EBC400401BD1
:109A2000C1B20122384600F0EBF908E03F20A0EB7C
:109A3000C400401BC1B20022384600F0E1F94FEAF1
:109A400048604FEA1068681CC5B2082DE1DB601C55
:109A5000C4B2082CD9DB781CC7B2802FD3DB00F04E
:109A600033FABDE8F081000010B50446024901EB6D
:109A70008420FFF7BFFF10BD24F6000802461346FE
:109A800010E010782A2805D01078202802DB107802
:109A90007A2801DDFF20704710782C2801D1481E5C
:109AA000C1B2521C0029ECD1D01AC0B2F3E710B5F4
:109AB0000246012000E050430B1EA1F10104E1B277
:109AC000F9D110BD2DE9F34F81B007463C46002087
:109AD0000090834681460026804628E020782D2885
:109AE00002D148F00208641C20782C2802D020788B
:109AF0002A2800D11CE020782E2803D148F0010844
:109B0000641C09E02078392802DC2078302803DA48
:109B10004FF0000900260BE008F0010010B1701CA6
:109B2000C6B203E009F1010000F0FF09641CD5E7AB
:109B300000BF08F0020000B17F1C00250EE0A9F173
:109B40000100401BC1B20A20FFF7B1FF795D303937
:109B5000009A00FB01200090681CC5B24D45EEDB69
:109B6000052E00DD05260298067000250EE0701E09
:109B7000401BC1B20A20FFF79AFF09F101012944F5
:109B8000795C303900FB01BB681CC5B2B542EEDB25
:109B900031460A20FFF78BFF009901FB00BA08F05D
:109BA000020008B1CAF1000A5046BDE8FE8F7047B6
:109BB0007CB54FF4E13500240620FFF755FF012066
:109BC000102106232A46CDE90010302000F0DEFBEC
:109BD00040F2DC5003F00AFD284603F09FF906E04E
:109BE00002F08AFE601CC4B2642003F0FFFCFFF7A1
:109BF000CFFC08B10A2CF3DD0A2C15DB0E20FFF791
:109C000033FF0120384908600DE03748001D006827
:109C100008B9012000E000203349091D08604FF415
:109C2000967003F0E3FCF0E7002000F09FFE0024B4
:109C30002E480068FFF77DFC01202B4908600020BA
:109C40002B49C1F8980100BF05202A49087026E079
:109C50002848007800B923E0601DC11700EB91711E
:109C60008910A0EB8101CCB21F48006808B901201F
:109C700000E000201C4908601D48D0F8980108B990
:109C8000012000E000201849091D0860204600F06E
:109C90006DFE4FF42F7003F0A9FC02F02DFED7E704
:109CA00000BF1548008841F23421884201D003F0FA
:109CB00095F9FFF745FCA8B10E20FFF7D5FE01206E
:109CC000094908600DE00848001D006808B9012036
:109CD00000E000200449091D08604FF4967003F06D
:109CE00085FCF0E77CBD00009481214284000020C7
:109CF0000080214291000020B86C004000B5022095
:109D0000FFF758FE00BD000070B5002100230F22B0
:109D1000C47804B3154C246804F4E064C4F5E0642A
:109D2000210AC1F10403CA40447804FA03F184789B
:109D30001440214309010E4C0678A155047804F023
:109D40001F050124AC4005786D11AD0005F1E0253B
:109D5000C5F8004109E0047804F01F050124AC4077
:109D6000044D0678761145F8264070BD0CED00E0F4
:109D700000E400E080E100E01FB5044600F038FF99
:109D80000A48807809494978084A1278074B9B7A33
:109D9000CDE90032CDE902100448437AB0F807203B
:109DA00003A12046FEF760FA1FBD00002401002039
:109DB00025303464253032642530326425303264F5
:109DC00025303264253032640000000000200CE0B1
:109DD000002106E00022064B03EBC0135A544A1C34
:109DE000D1B28029F6DB421CD0B20828F0DB7047E4
:109DF000A803002010B5FFF7E9FF00F065F810BDDB
:109E0000F0B515460023802801DA402900DBF0BDBB
:109E10000C46CF1701EB5777FF10C7F10707FAB2CF
:109E2000CF1701EB5777FF10A1EBC707FEB2C6F1C2
:109E300007070124BC40E3B225B1012D0CD0022D4F
:109E40001ED113E0104C04EBC214245C9C430E4F53
:109E500007EBC2173C5414E00B4C04EBC214245C17
:109E60001C43094F07EBC2173C540AE0064C04EBB5
:109E7000C214245C5C40044F07EBC2173C5400E062
:109E800000BF00BF00BFC2E7A803002070B50024D8
:109E9000002500BF11E000250BE00A4800EBC410CC
:109EA000405D80F0FF00074901EBC4114855681C74
:109EB00085B2802DF1DB601CC4B2082CEBDB00F016
:109EC00003F870BDA803002070B5002412E02146FD
:109ED000002000F07FF9002508E0084901EBC411DB
:109EE000485D012100F02CFB681CC5B2802DF4DB1D
:109EF000601CC4B2082CEADB70BD0000A80300207F
:109F000008B50121042000F081FD10208DF8030028
:109F100003208DF802001020ADF8000069464E487D
:109F2000FFF7D2F910208DF8030003208DF802000E
:109F30004020ADF8000069464748FFF7C5F969467B
:109F40004548FFF7C1F910208DF8030003208DF874
:109F500002000220ADF8000069463F48FFF7B4F95F
:109F600002F066FB002002F0C9FB02213A48FFF72D
:109F70003FFA642003F03AFB02213748FFF73AFA30
:109F80000021AE2000F0DCFA0021D52000F0D8FA44
:109F90000021502000F0D4FA0021A82000F0D0FACF
:109FA00000213F2000F0CCFA0021D32000F0C8FAB5
:109FB0000021084600F0C4FA0021402000F0C0FA59
:109FC00000218D2000F0BCFA0021142000F0B8FA26
:109FD0000021202000F0B4FA0021022000F0B0FAA5
:109FE0000021A12000F0ACFA0021C82000F0A8FA5E
:109FF0000021DA2000F0A4FA0021122000F0A0FADB
:10A000000021812000F09CFA0021EF2000F098FA56
:10A010000021D92000F094FA0021F12000F090FAFC
:10A020000021DB2000F08CFA0021302000F088FABB
:10A030000021A42000F084FA0021A62000F080FA7C
:10A040000021AF2000F07CFA0021084600F0C2F8A1
:10A05000FFF7D0FE08BD00000008014010B5002148
:10A06000D52000F06DFA0021502000F069FA00219F
:10A07000A82000F065FA00213F2000F061FA0021DD
:10A08000D32000F05DFA0021084600F059FA0021C3
:10A09000402000F055FA00218D2000F051FA0021F7
:10A0A000142000F04DFA0021202000F049FA002190
:10A0B000022000F045FA0021A12000F041FA002121
:10A0C000C82000F03DFA0021DA2000F039FA002122
:10A0D000122000F035FA0021812000F031FA002131
:10A0E000EF2000F02DFA0021D92000F029FA0021FC
:10A0F000F12000F025FA0021DB2000F021FA0021F8
:10A10000302000F01DFA0021A42000F019FA0021EF
:10A11000A62000F015FA0021AF2000F011FA10BDC2
:10A120002DE9F0410746884615463C460026B8F121
:10A13000800F03DC802F01DC402D01DDBDE8F081C4
:10A140002846E91705EB5171C910C1F10701CEB2DC
:10A150003146204600F03EF808E01D4901EBC611EB
:10A16000085D012100F0ECF9601CC4B24445F4DB49
:10A17000701EC6B23C463146204600F02BF808E07F
:10A18000134901EBC611085D012100F0D9F9601CEB
:10A19000C4B24445F4DBE91705EB11710911A5EBD5
:10A1A000011191B1701EC6B23C463146204600F006
:10A1B00011F808E0064901EBC611085D012100F025
:10A1C000BFF9601CC4B24445F4DB00BFB6E7000031
:10A1D000A803002070B504460D4605F1B001C8B2D1
:10A1E000002100F0ADF9102141EA1410002100F027
:10A1F000A7F904F00F0141F00100002100F0A0F9DF
:10A2000070BD00002DE9FC5F8146884615469B46DF
:10A21000DDF830A0CDF80480CDF80090A5F1200045
:10A22000C5B2BBF1080F03D0BBF1100F7ED132E0F5
:10A2300000242DE005EB450004EB400051490E5C85
:10A2400000271BE006F0800028B1524641464846F0
:10A25000FFF7D6FD0AE0BAF1000F01D1012000E0BE
:10A260000020024641464846FFF7CAFD7006060E2A
:10A2700008F1010000F0FF08781CC7B2082FE1DBED
:10A2800009F1010000F0FF09DDF80480601CC4B290
:10A29000062CCFDB58E0002452E004EB0510083018
:10A2A00039490E5C00271BE006F0800028B15246B9
:10A2B00041464846FFF7A4FD0AE0BAF1000F01D17C
:10A2C000012000E00020024641464846FFF798FD85
:10A2D0007006060E08F1010000F0FF08781CC7B2F6
:10A2E000082FE1DB04EB051027490E5C00271BE07B
:10A2F00006F0800028B1524641464846FFF780FDEF
:10A300000AE0BAF1000F01D1012000E0002002466E
:10A3100041464846FFF774FD7006060E08F101003D
:10A3200000F0FF08781CC7B2082F00E00BE0DFDB6D
:10A3300009F1010000F0FF09DDF80480601CC4B2DF
:10A34000082CAADB00E000BF00BF0D98C0B1BBF134
:10A35000080F03D0BBF1100F10D107E000980830B0
:10A36000C1B2DDE90002FFF7DBFE08E00098103023
:10A37000C1B2DDE90002FFF7D3FE00E000BF00BF7D
:10A38000BDE8FC9F244E01084C5001082DE9FF4F09
:10A3900083B0054692469846DDE910674FF0000B02
:10A3A00000246AE0A8EB0400401EC1B20A2004F0B9
:10A3B0008BFFBAFBF0F00A21B0FBF1F201FB1209AE
:10A3C000BBF1000F2BD1A8F10100A04227DDB9F1AC
:10A3D000000F22D1082E11D1012F01D1012000E060
:10A3E00000200121CDE90010062101FB0451C8B273
:10A3F000334620220499FFF705FF0DE0102E0BD104
:10A400000120082101FB0451CDE90007C8B2334601
:10A4100020220499FFF7F6FE2DE04FF0010B082EE5
:10A4200013D1012F01D1012000E000200121CDE94D
:10A43000001009F13001CAB2062101FB0451C8B273
:10A4400033460499FFF7DEFE14E0102E12D1012FDF
:10A4500001D1012000E000200121CDE9001009F127
:10A460003001CAB2082101FB0451C8B23346049935
:10A47000FFF7C8FE00BF601CC4B2444592DB022F48
:10A4800001D1FFF721FD07B0BDE8F08F2DE9FC5F9A
:10A4900004460E4615469846DDE90C97A2464FF055
:10A4A000000B41E0B8F1080F03D0B8F1100F39D11B
:10A4B0001BE07A2C03DD544606F10800C6B2382EA4
:10A4C00002DD4FF0010B2EE0012F01D1012000E051
:10A4D0000020CDE900902A78082331462046FFF776
:10A4E00091FEA01DC4B26D1C1DE0782C03DD544606
:10A4F00006F11000C6B2302E02DD4FF0010B12E063
:10A50000012F01D1012000E00020CDE900902A7840
:10A51000102331462046FFF775FE04F10800C4B24F
:10A520006D1C00E000BF00BF287810B1BBF1000F28
:10A53000B8D0022F01D1FFF7C7FCBDE8FC9F000097
:10A5400070B505460C4624B140210C48FEF752FF79
:10A5500003E040210948FEF74BFF10210748FEF7B2
:10A5600047FF284602F0A0F810210448FEF742FFFA
:10A5700040210248FEF73EFF70BD00000008014088
:10A580001CB50C20FFF770FA01200090102362A286
:10A59000002101900846FFF779FF6048B0F81300EA
:10A5A0005F49B1F80710884223D05D48B0F8071022
:10A5B0005A48A0F8131001200090102359A230210E
:10A5C00001901820FFF762FF01200090102358A28D
:10A5D000202101900846FFF759FF01201021CDE905
:10A5E00000104F48B0F80720042330211820FFF74F
:10A5F000CDFE4B48417A4948407D81420ED04848C3
:10A60000417A4648417501201021CDE900104448A7
:10A61000427A022330214020FFF7B8FE4048817A79
:10A620003E48807D81420ED03D48817A3B4881750D
:10A6300001201021CDE900103948827A022330210F
:10A640005820FFF7A3FE364800783449097B88423A
:10A650000ED0334800783149087301201021CDE92C
:10A6600000102F480278022320210846FFF78EFEB3
:10A670002B4841782948407B81420ED028484178B8
:10A680002648417301201021CDE90010244842786A
:10A69000022320213820FFF779FE214881781F48C6
:10A6A000807B81420ED01E4881781C488173012036
:10A6B0001021CDE900101A48827802232021502071
:10A6C000FFF764FE154800891C49098888420DD0AF
:10A6D0001A48008811490881012010210423CDE97E
:10A6E0000010164802886020FFF750FE0B480068F3
:10A6F0001349096888420ED011480068074908606C
:10A70000012010210823CDE900100D480021026826
:10A710004020FFF73BFE1CBD475053003C0000208B
:10A7200024010020202020202D20202D202000008A
:10A7300020203A20203A2020000000003400002091
:10A740002C0000201CB57D480088401C7B490880F7
:10A75000084600882D287DD005DC48B10F287AD026
:10A760001E2879D1A0E03C2877D04B28F9D1D6E03B
:10A770007348B0F813007349B1F80710884223D02A
:10A780007048B0F807106E48A0F813100120009030
:10A7900010236DA2302101901820FFF777FE0120D1
:10A7A000009010236BA2202101900846FFF76EFE57
:10A7B00001201021CDE900106248B0F807200423E1
:10A7C00030211820FFF7E2FD5E48417A5C48407D69
:10A7D00081420ED05B48417A5948417501201021D1
:10A7E000CDE900105748427A022330214020FFF77C
:10A7F000CDFD5448817A5248807D81420ED0514827
:10A80000817A4F48817501201021CDE900104D4813
:10A81000827A022330215820FFF7B8FD494800789A
:10A820004749097B88420ED046480078444908735E
:10A8300001201021CDE90010424802780223202196
:10A840000846FFF7A3FD3F4841783D48407B8142E1
:10A8500013D003E043E026E062E05BE03948417852
:10A860003748417301201021CDE900103548427866
:10A87000022320213820FFF789FD324881783048B3
:10A88000807B81420ED02F4881782D488173012032
:10A890001021CDE900102B4882780223202150207E
:10A8A000FFF774FD3CE03BE02D48008842F20F7159
:10A8B000884213DC224800892949098888420DD042
:10A8C000274800881E490881012010210423CDE972
:10A8D0000010234802886020FFF758FD20E021483F
:10A8E00000682149884214D8154800681D49096844
:10A8F00088420ED01B4800681149086001201021D1
:10A900000823CDE900101748002102684020FFF716
:10A910003DFD05E0FFF7A2FBFFF7D6FA00E000BF20
:10A9200000BF06480088692806DD0020034908802A
:10A9300008460088401E08801CBD00003A00002028
:10A940003C00002024010020202020202D20202D4C
:10A950002020000020203A20203A20200000000083
:10A96000340000202C000020FFE0F50510B504465F
:10A970002046E11704EB91718910A4EB8101CCB260
:10A98000034901EB8420FFF735F8FFF79DFA10BD6E
:10A99000243E0108014908627047000000000E4291
:10A9A000704700001CB50748FFF724F8012000900D
:10A9B000102301900448002102684020FFF766FD43
:10A9C0001CBD0000365A01080801002029B1064AC2
:10A9D00052690243044B5A6104E0034A52698243BC
:10A9E000014B5A61704700000010024029B1064A2D
:10A9F000D2690243044BDA6104E0034AD26982431C
:10AA0000014BDA61704700000010024029B1064A8C
:10AA100092690243044B9A6104E0034A92698243BB
:10AA2000014B9A61704700000010024030B50021D0
:10AA30000022002400232D4D6D6805F00C0121B18A
:10AA4000042905D0082923D105E0294D056022E01D
:10AA5000274D05601FE0254D6D6805F47012234DEC
:10AA60006D6805F48034022505EB92421CB9214D36
:10AA7000554305600BE01D4D6D6805F400351DB1B3
:10AA80001C4D5543056002E0194D5543056002E039
:10AA9000174D056000BF00BF144D6D6805F0F00153
:10AAA0000909154D6B5C0568DD4045600F4D6D680B
:10AAB00005F4E061090A104D6B5C4568DD40856076
:10AAC0000A4D6D6805F46051C90A0B4D6B5C456811
:10AAD000DD40C560054D6D6805F44041890B074DAB
:10AAE0006B5CC568B5FBF3F5056130BD0010024035
:10AAF00000127A0000093D00B4000020C4000020CC
:10AB000010B501460022002300204A11012A02D17B
:10AB1000094C236806E0022A02D1074C236A01E0AF
:10AB2000054C636A01F01F02012494401C400CB1E3
:10AB3000012000E0002010BD0010024000210B4A5F
:10AB400011700A4A203A82F82010012802D0042805
:10AB500008D103E00121054A117004E00521034AF0
:10AB6000117000E000BF00BF7047000020100240DD
:10AB700001490860704700003C0442420249096AEA
:10AB80000143014A11627047001002400A780270C6
:10AB90004A7842708A788270D1F80320C0F8032086
:10ABA000B1F80720A0F807204A7A42728A7A8272A6
:10ABB000CA7AC27270470000024909888143014A7B
:10ABC00011807047042800400348008840F01000BE
:10ABD00001490880704700000428004003480088AD
:10ABE0004FF6EF7108400149088070470428004083
:10ABF00070B500260024002500F0A6F900F07CF8CE
:10AC000006463748B6FBF0F436480088A0423ED0EE
:10AC100034490C8040F2B27510E02846FEF7ECFD96
:10AC200040B1B4F5B77F02D3A4F5B77404E0681C53
:10AC300085B206E0A4F26D14681C85B2B4F5B67F47
:10AC4000EBD800BF2848A0F80750002517E0264998
:10AC5000B1F80700FEF7D0FD30B1012D04D11D2C55
:10AC600001D31D3C09E00CE02048405DA04203D820
:10AC70001E48405D241A00E003E0681C85B21C2CCD
:10AC8000E5D200BF681C18494872601C88721448DD
:10AC9000B6FBF0F100FB11644FF46160B4FBF0F01F
:10ACA000114908704FF46160B4FBF0F100FB1140F2
:10ACB0003C21B0FBF1F00C4948704FF46160B4FBEB
:10ACC000F0F100FB11403C21B0FBF1F201FB12005E
:10ACD000054988700020064908800649088070BD33
:10ACE00080510100560000202401002018F60008C1
:10ACF0005400002024040040002103480188001F64
:10AD0000008841EA004070471C28004001460020AE
:10AD1000064A12880A40D0B2044A121F12880A401A
:10AD200012B108B1012000E0002070470428004063
:10AD300010B50120FFF7EAFF08B1FFF759FF022025
:10AD4000FFF7E4FF10B10220FFF736FF0520FFF701
:10AD500033FF00F0EFF810BD29B1064A1288024314
:10AD6000044B1A8004E0034A12888243014B1A8084
:10AD700070470000002800401CB5002401214FF05E
:10AD8000C050FFF733FE0120FFF704FE0120FFF75C
:10AD9000D5FE04E0601CC4B20A2002F027FC41206A
:10ADA000FFF7AEFE08B9FA2CF4DBFA2C01DB012028
:10ADB0001CBD4FF48070FFF7E1FE0120FFF7D8FEC5
:10ADC00000F0B8F800F0C0F801210846FFF7C4FF12
:10ADD00000F0B0F8FFF7F8FE47F6FF7000F09AF8C1
:10ADE00000F0A8F80020009003460C2209210190F1
:10ADF0004FF4FC6000F018F800F004F8FFF7F8FEDC
:10AE00000020D5E708B503208DF8000001208DF85B
:10AE1000010002208DF8020001208DF80300684631
:10AE2000FEF772FF08BD00002DE9F05F06460F46F1
:10AE300090469946DDE90AAB002440F2B2708642A2
:10AE400003DB40F63300864202DD0120BDE8F09FBF
:10AE500040F2B2750AE02846FEF7CEFC10B1224857
:10AE6000044401E021480444681C85B2B542F2DB89
:10AE7000781EC7B2002510E01D48405D40F2A321B6
:10AE8000484304EBC0143046FEF7B6FC18B1012D60
:10AE900001D118480444681C85B2BD42ECDBA8F11E
:10AEA000010040F2A321484304EBC014C9EB491050
:10AEB000C0EB092004EB0014CAEB0A1004EB800479
:10AEC0005C4401214FF0C050FFF790FD0120FFF7D7
:10AED00061FD00F02FF8204600F00EF800F02AF88F
:10AEE000FFF786FE0020B1E70085E2018033E10133
:10AEF00018F600088051010000B50246FFF764FE15
:10AF0000100C03490880091D0A80FFF767FE00BD89
:10AF10001828004000B50246FFF756FEC2F3034072
:10AF200003490880091D0A80FFF758FE00BD000094
:10AF30000828004000BF0348008800F020000028D7
:10AF4000F9D0704704280040074800884FF6F77191
:10AF500008400549088000BF0348008800F0080049
:10AF60000028F9D0704700000428004010B50446BE
:10AF7000E7222146014801F071FC10BD007800086D
:10AF80002DE9F04104460025002600272046FFF762
:10AF9000EDFF208845F27831884202D00120BDE8DB
:10AFA000F0814FF4006004F075F90746D4F806000C
:10AFB000C0F3CF26002514E0D4F8021001EBC52021
:10AFC0004FF48062394601F049FC4FF40071384675
:10AFD00001F026FC04F10E0101EB85010860681CFC
:10AFE00085B2B542E8DBE088C0F30A06B04606EB5E
:10AFF000D8714A10D4F8021001EBC520394601F08F
:10B000002DFCF01706EB90708110384601F008FC1B
:10B0100004F10E0101EB85010860384604F02CF9BB
:10B020000020BCE77CB5054600240020009001907C
:10B0300000260DB1022600E000261848406900F005
:10B04000007008B10E207CBD1549098888B2694698
:10B05000FEF792F804460CB12046F4E7019800F49C
:10B060008020C0B10E48008802040121372000F082
:10B070002BF83720FDF79EFD04460CB12046E2E791
:10B0800032460121062000F01FF80620FDF792FD50
:10B0900004462046D7E72520D5E700000080014080
:10B0A000600000200549496821F0FF01034A516012
:10B0B000114649680143516070470000008001401B
:10B0C00000B500F00DFC00BD10B50E4B9A60DB68BA
:10B0D0006FF30A030B4CE3602346DB6800F03F0488
:10B0E0002343084CE3602346DB6843EA8113E360B3
:10B0F0002346DB68E3602346DB6843F48063E36058
:10B1000010BD00000080014030B5104C606221F09D
:10B110007E440E4DAC622C46E46A24F0F704EC62E7
:10B120002C46E46A44EA0214EC622C46E46AEC62BF
:10B130002C46E46A03F0010544EA4504034DEC6241
:10B140002C46E46A44F00104EC6230BD008001400A
:10B1500010B5234B1B6843F47043214C2360204BF4
:10B1600040331B6823F001031D4C40342360234609
:10B170001B6847F6F074A343194C40342360234600
:10B180001B6843EA0213236023461B68236023469F
:10B190001B68236023461B6843F08003236023461B
:10B1A0001B6843F40073236023461B6843F4006369
:10B1B000236023461B6843F4005323608B08241D3F
:10B1C0002360084B241D2360231D1860044B40336B
:10B1D0001B6843F00103024C4034236010BD0000A3
:10B1E000040402408080014030B504460025164822
:10B1F0000078032801D1272030BD1348007838B1EA
:10B2000011480078012803D00F480078022818D18F
:10B21000022C01D32720EFE7E0B2FFF703FF05463A
:10B220007DB90A48406820F4C05008494860084683
:10B230004068A1B240EAC12004494860084640681D
:10B2400048602846D8E700005C00002000800140EC
:10B25000F0B5014600200022BE4B1B7881F8563025
:10B26000BD4B1B88A1F85430BC4B1B681A0E9309C8
:10B270000B70C2F383034B7002F003038B70B74B68
:10B280001B68C3F30742CA70B44B1B88C3F3072281
:10B290000A71B24B1A784A715B681A0E1301CB809F
:10B2A000AE4B5B68C3F30742CB8843EA1213CB80F3
:10B2B00002F00F030B72A94B9B88C3F30722D3093B
:10B2C0004B72C2F380138B72C2F34013CB72C2F382
:10B2D00000130B7300234B739E4B1B783BB19D4BAC
:10B2E0001B78012B03D09B4B1B78032B4FD193076B
:10B2F0001B0D0B61994B1A790B6943EA82030B61B1
:10B30000964B9B681A0E0B6943EA92130B61C2F3CA
:10B31000C2030B7502F007034B75904B9B68C3F398
:10B32000074253098B75C2F38203CB7593075B0FFA
:10B330000B768A4B1B89C3F307220B7E43EAD21399
:10B340000B760B695B1C0024C1E912340B7E9B1C3D
:10B35000012404FA03F3DC17D1E91256A5FB037CA0
:10B3600006FB03C305FB0433C1E912730C7A012306
:10B37000A3400B650024D1E912650B6DA6FB037C8D
:10B3800005FB03C306FB0433C1E912732EE0714BC6
:10B390001B78022B2AD1714B1A7993069B0A0B61F9
:10B3A0006E4B9B681A0E0B6943EA02230B616B4BD1
:10B3B0009B68C3F307420B6913430B61674B1B89FF
:10B3C000C3F307220B695B1C4FF40074A3FB044614
:10B3D0004FF480630025A4FB037C06FB03C304FB3E
:10B3E0000533C1E912734FF400730B65C2F3801388
:10B3F00001F8193F93065B0E4B70584B1A7A4B7845
:10B4000043EAD2134B7002F07F038B70534BDB681F
:10B410001A0ED309CB70C2F341130B71C2F382032E
:10B420004B7193071B0F8B714C4BDB68C3F30742C7
:10B430008B7943EA92138B71C2F34013CB710023D3
:10B440000B7202F001034B72444B9B89C3F307223A
:10B45000D3098B72C2F38013CB72C2F340130B7308
:10B46000C2F300134B73C2F381038B7302F0030327
:10B47000CB733A4B1A7B53080B7401234B74384B34
:10B480001B681A0ECA741939354B1B68C3F307427F
:10B490001402CC85324B1B88C3F30722CB8D134398
:10B4A000CB852F4B1A7814060C635B681A0E0B6B56
:10B4B00043EA02440C632A4B5B68C3F307420B6BFD
:10B4C00043EA02240C63264B9B88C3F307220B6BD1
:10B4D00013430B63224B1A7934235A54204B9B6835
:10B4E0001A0E35235A541E4B9B68C3F307421406A9
:10B4F0008C631B4B1B89C3F307228B6B43EA02440B
:10B500008C63174B1A7A8B6B43EA02248C63144BBF
:10B51000DB681A0E8B6B13438B63114BDB68C3F331
:10B5200007423C235B5C43EA12143C235C54130740
:10B530001C0DCC870A4B9B89C3F30722CB8F134387
:10B54000CB87074B1A7B540840235C5401244123CA
:10B550005C54F0BD5C000020600000203001002041
:10B560004001002038B500243648806940F01000C2
:10B57000344988610846806940F0200088610846A7
:10B58000406940F4806048610846406940F002002C
:10B5900048612D4840686FF313002B494860084606
:10B5A00040682A490843284948602948006820F42F
:10B5B0007060274908600846006840F43060086001
:10B5C00000202449086048608860C860486288623A
:10B5D000C862214888630020C86331208DF80000CC
:10B5E00001208DF8030000208DF801008DF8020085
:10B5F0006846FEF789FB00F0B7F8044614B900F07E
:10B6000031F804461CB91548FFF722FE044634B948
:10B610001249B1F85410080400F092FC04461CB919
:10B620000120FFF7E1FD04461CB10D480078032816
:10B6300006D10120FFF736FD012000F08DFC044605
:10B64000204638BD0010024000100140BBBB0B007B
:10B650000014014000800140FF07C000500100209D
:10B660005C00002018B500240120009039480068D3
:10B6700000F0030008B9252018BD374800780428D9
:10B6800017D0002203210220FFF71EFDFDF7BEFAAE
:10B6900004460CB12046EFE72E4840692F49086068
:10B6A0002C48806948602B48C06988602948006A36
:10B6B000C8602948007858B127480078012807D089
:10B6C00025480078062803D02348007802280CD1AA
:10B6D000002201210320FFF7F7FC69460320FDF754
:10B6E000DFFA04460CB12046C6E71B480078032861
:10B6F0000CD1BDF80000020401210320FFF7E4FC97
:10B70000FDF784FA04460CB12046B5E712480078EC
:10B7100004281DD0BDF8000011490860BDF80000E4
:10B72000020403210920FFF7CFFCFDF76FFA04465E
:10B730000CB12046A0E7074840690A49086005485F
:10B74000806948600348C06988600248006AC86030
:10B75000002091E7008001405C00002040010020B3
:10B7600060000020300100202DE9F0430027002474
:10B7700000260025A046A1460020554948600846FD
:10B78000406848600846406848600846406848602D
:10B79000084640684860084640684860B220FFF7A5
:10B7A00081FC03204A4908600846406840F48070E4
:10B7B000486000BF0BE0002211461046FFF784FCF2
:10B7C000FDF7DEF9044604B903E0781CC7B24A2F3E
:10B7D000F1DB00BF14B12046BDE8F0834FF4D57211
:10B7E00001210820FFF770FCFDF7A4FA044624B9F4
:10B7F0000120384908704FF080490022012137208C
:10B80000FFF762FC3720FDF7D5F904467CBB20E04A
:10B81000002201213720FFF757FC3720FDF7CAF936
:10B8200004460CB12046D7E72B4849EA0002012123
:10B830002920FFF749FCFDF717FA04460CB1204612
:10B84000CAE723484669012080EAD67080F00108E3
:10B850006D1CB8F1000F03D14FF6FF708542D7D3AE
:10B860004FF6FF70854203D31B242046B4E707E060
:10B8700006F08040061E28D002201649087024E0F9
:10B8800012E0164A01210846FFF71EFCFDF7ECF90D
:10B8900004460CB120469FE70D484669012080EA26
:10B8A000D67080F001086D1CB8F1000F03D14FF67F
:10B8B000FF708542E5D34FF6FF70854202D31B240B
:10B8C000204689E7032003490870204684E70000EA
:10B8D000008001405C000020000010800080FF809C
:10B8E00000B54D48406B00F4807020B34B480078A1
:10B8F00001280AD1002201210C20FFF7E5FB0C20D2
:10B90000FDF758F94649087002E0002044490870E4
:10B910004148806B40F480703F4988630846C06BA3
:10B920004CF23A3188433C49C86301203D490870D4
:10B930003B48007800BD3848406B00F0020080B101
:10B940003548806B40F00200334988630846C06B7D
:10B950004CF23A3188433049C863022030490870BC
:10B96000E8E72D48406B00F0080080B12A48806B62
:10B9700040F00800284988630846C06B4CF23A3111
:10B9800088432549C863042025490870D2E7224826
:10B99000406B00F0200080B11F48806B40F0200019
:10B9A0001D4988630846C06B4CF23A3188431A49F6
:10B9B000C86306201A490870BCE71748406B00F0BE
:10B9C000100080B11448806B40F010001249886369
:10B9D0000846C06B4CF23A3188430F49C8630520D2
:10B9E0000F490870A6E70C48406B00F4007080B166
:10B9F0000948806B40F40070074988630846C06BB3
:10BA00004CF23A3188430449C8630720044908705E
:10BA100090E700208EE700000080014065000020D4
:10BA200066000020670000202DE9F04F06460F4613
:10BA300014464FF00008C1463546C24616B92620C6
:10BA4000BDE8F08F00207249C86272480078022871
:10BA500001D104027F0A00231A4619466E48FFF7F7
:10BA600053FB6B48406900F0007008B10E20E7E717
:10BA7000002C17DDB4F5006F14DC601E204088B97F
:10BA8000204601F0E5FB8346224601211020FFF706
:10BA90001BFB1020FDF78EF88046B8F1000F03D095
:10BAA0004046CDE72620CBE701235A4621465A4897
:10BAB000FFF72AFB3A4601211120FFF705FB112071
:10BAC000FDF778F88046B8F1000F01D04046B7E79F
:10BAD0005248007800285FD112E04D48406B00F4D6
:10BAE000004068B14FF0000906E049488030006826
:10BAF00045F8290009F10109B9F1080FF5D32035FE
:10BB00004348406B40F22A6108400028E5D0404895
:10BB1000406B00F0080038B13D48806B40F00800F1
:10BB20003B49886304208BE73948406B00F00200F2
:10BB300038B13748806B40F00200354988630220F5
:10BB40007EE73348406B00F0200038B13048806B0E
:10BB500040F020002E498863062071E72C48406B96
:10BB600000F4007038B12A48806B40F40070284916
:10BB70008863072064E704E02548D0F88000286047
:10BB80002D1D2348406B00F400100028F4D140F232
:10BB9000FF501F49886339E020480078012835D1DB
:10BBA00000201F4908701F4908701F490870184875
:10BBB000C06B40F22A3108431549C8630846C06A81
:10BBC00040F00800C862002221463046FFF7C0FA64
:10BBD000DFF858A001E0AAF1010A1548006800F456
:10BBE000005040B91048007828B90D48007810B9C5
:10BBF000BAF1000FEFD1BAF1000F01D104201FE715
:10BC00000748007810B1064890F80080404617E7D2
:10BC1000008001405C000020FFFF0F006400002056
:10BC2000660000206500002067000020FFFF020082
:10BC3000000402402DE9F04106460F4614464FF03D
:10BC400000081948007800B17F0206F00300B8B17F
:10BC5000002512E04FF4007000FB05710246134806
:10BC6000FFF7E2FE80464FF4007210493046FCF7C1
:10BC700056FC06F50076681CC5B2A542EADB10E06A
:10BC8000012C06D1620239463046FFF7CDFE8046D0
:10BC900007E023464FF400723946304600F008F8BA
:10BCA00080464046BDE8F0815C000020A8010020ED
:10BCB0002DE9F84F8346884614461D460026B146B6
:10BCC0005F46B24600208849C8628848007802284A
:10BCD00002D104024FEA582800231A461946844824
:10BCE000FFF712FA8048406900F0007010B10E2092
:10BCF000BDE8F88F002C15DDB4F5006F12DC601E76
:10BD0000204078B9204601F0A3FA00902246012194
:10BD10001020FFF7D9F91020FCF74CFF06461EB1A2
:10BD20003046E5E72620E3E7012D7DD905FB04F049
:10BD3000B0F1007F01D32620DAE705FB04F10123EF
:10BD40006B48009AFFF7E0F9424601211220FFF705
:10BD5000BBF91220FCF72EFF06460EB13046C7E7AE
:10BD60006448007800287ED112E05F48406B00F400
:10BD7000004068B14FF0000906E05B488030006881
:10BD800047F8290009F10109B9F1080FF5D3203767
:10BD90005548406B40F22A3108400028E5D052480F
:10BDA000406B00F0080038B14F48806B40F008004D
:10BDB0004D49886304209BE74B48406B00F002002C
:10BDC00038B14948806B40F002004749886302203F
:10BDD0008EE74548406B00F0200038B14248806B48
:10BDE00040F0200040498863062081E73E48406BD0
:10BDF00000F4007038B13C48806B40F400703A4960
:10BE00008863072074E704E03748D0F88000386082
:10BE10003F1D3548406B00F400100028F4D1324833
:10BE2000406B00F4807000E05BE0B8B12F48007810
:10BE300038B12E480078012803D02C480078022819
:10BE40000CD1002201210C20FFF73EF90C20FCF759
:10BE5000B1FE064616B130464AE704E040F2FF5014
:10BE6000214988633DE023480078012839D100202A
:10BE700021490870012021490870002020490870DC
:10BE80001948C06B40F22A3108431749C863084675
:10BE9000C06A40F00800C86205FB04F10022584661
:10BEA000FFF756F9DFF85CA001E0AAF1010A164895
:10BEB000006800F4005010B9BAF1000FF5D1BAF1E2
:10BEC000000F01D1042013E700BF0D48007818B916
:10BED000094800780028F8D00748007808B10648DB
:10BEE0000678304604E70000008001405C00002036
:10BEF000FFFF0F00640000206600002065000020A6
:10BF000067000020FFFF02000004024008B5012185
:10BF10000420FEF77BFD0120ADF8000003208DF822
:10BF2000020048208DF8030069460448FDF7CCF96B
:10BF300001210248FDF75EFA08BD0000000801403B
:10BF400010B50446224601210720FFF7BDF807205F
:10BF5000FCF730FE10BD000001460020012900D092
:10BF600011B9024B197000E02620704764000020D0
:10BF70002DE9F74F84B08346154600260020039034
:10BF8000029000240027019080460090AA46D946DE
:10BF9000BBF1000F03D1262007B0BDE8F08F0020D1
:10BFA000A449C86200231A461946A348FFF7ACF813
:10BFB000A048406900F0007008B10E20ECE79F48EF
:10BFC0000078022803D105020598400A0590002D4B
:10BFD00015DDB5F5006F12DC681E284078B92846DB
:10BFE00001F036F903902A4601211020FFF76CF882
:10BFF0001020FCF7DFFD06461EB13046CCE72620B8
:10C00000CAE78F480088020401210D20FFF75CF881
:10C010000D20FCF7CFFD06460EB13046BCE7854843
:10C0200040690190844C11E0641E85480088020438
:10C0300001210D20FFF748F80D20FCF7BBFD064657
:10C040000EB13046A8E77B4840690190019800F4A2
:10C05000807008B9002CE7D10CB929209CE7012198
:10C060001820059AFFF730F81820FCF7A3FD0646C4
:10C070000EB1304690E7002072490870002329462F
:10C080006D48039AFFF740F86F480078002879D18F
:10C0900037E06848406B00F4804090B3AAEB07009B
:10C0A00020281ED2AAEB070000F0030018B9AAEB63
:10C0B0000700800803E0AAEB07008008401C0090FE
:10C0C0004FF0000809E05B498031D9F800000860B2
:10C0D00008F1010809F104093F1D0098804510D2BC
:10C0E000F1E74FF0000806E059F828005149803187
:10C0F000086008F10108B8F1080FF5D309F120092B
:10C1000020374C48406B40F21A6108400028C0D0EC
:10C110004848406B00F0080038B14648806B40F05A
:10C12000080044498863042036E74248406B00F029
:10C13000020038B13F48806B40F002003D498863FF
:10C14000022029E73B48406B00F0100038B1394825
:10C15000806B40F010003749886305201CE73548A4
:10C16000406B00F4007040B13248806B40F40070C6
:10C170003049886307200FE704E040F2FF502D4963
:10C1800088633FE03048007801283BD100202F49E8
:10C1900008702C4908702E4908702648C06B40F280
:10C1A0001A3108432349C863012229465846FEF73D
:10C1B000CFFF2048C06A40F008001E49C862254CE5
:10C1C00000E0641E2448006800F4005008B9002C08
:10C1D000F7D11CB9FFF7C6F90420DDE61D4C00E0DD
:10C1E000641E1B48007820B91848007808B9002C54
:10C1F000F6D10CB90420CFE61448007810B11348EA
:10C200000078C9E640F2FF500A49886302A8FDF7AA
:10C21000ABFA064603E002A8FDF7A6FA06463EB9C9
:10C220009DF808000728F6D09DF808000628F2D0EF
:10C230003046B1E600800140FFFF0F005C000020A7
:10C2400060000020650000206400002066000020DF
:10C2500067000020FFFF0200000402402DE9F041CA
:10C2600004460F4615464FF000081948007800B103
:10C270007F0204F00300B8B1002612E04FF4007210
:10C2800021461448FCF74BF94FF4007000FB06718F
:10C2900002461048FFF76CFE804604F50074701CDF
:10C2A000C6B2AE42EADB10E0012D06D16A02394681
:10C2B0002046FFF75DFE804607E02B464FF40072F4
:10C2C0003946204600F008F880464046BDE8F08137
:10C2D0005C000020A80100202DE9FF4F83B0144628
:10C2E0001D460026002002900190002780468146CE
:10C2F000009005FB04FBDDF80CA0DDF80CA0BAF102
:10C30000000F03D1262007B0BDE8F08F0020B5490B
:10C31000C86200231A461946B348FEF7F5FEB14835
:10C32000406900F0007008B10E20ECE7AF480078DB
:10C33000022803D104020498400A0490002C15DD61
:10C34000B4F5006F12DC601E204078B9204600F082
:10C350007FFF0290224601211020FEF7B5FE10203B
:10C36000FCF728FC06461EB13046CCE72620CAE77B
:10C37000012D6FD905FB04F0B0F1007F01D3262019
:10C38000C1E79A48007838B198480078012803D06E
:10C3900096480078022819D19548008802040121A6
:10C3A0003720FEF791FE3720FCF704FC06460EB15D
:10C3B0003046A8E72A4601211720FEF785FE172000
:10C3C000FCF7F8FB06460EB130469CE70121192028
:10C3D000049AFEF779FE1920FCF7ECFB06460EB135
:10C3E000304690E705FB04F100237F48029AFEF7F0
:10C3F0008BFE80480078002877D13BE07948406B7D
:10C4000000F4804038B3ABEB080020281FD2ABEB20
:10C41000080000F0030018B9ABEB0800800803E047
:10C42000ABEB08008008401C00904FF000090AE0C8
:10C430006C498031DAF80000086009F101090AF15D
:10C44000040A08F104080098814513D2F0E74FF080
:10C45000000908E0AEE00DE05AF82900614980319A
:10C46000086009F10109B9F1080FF5D30AF1200AB2
:10C4700008F120085B48406B40F21A310840002860
:10C48000BCD05848406B00F0080038B15548806B6C
:10C4900040F0080053498863042034E75148406B5A
:10C4A00000F0020038B14F48806B40F002004D4967
:10C4B0008863022027E74B48406B00F0100038B13A
:10C4C0004848806B40F010004649886305201AE711
:10C4D0004448406B00F4007040B14248806B40F427
:10C4E00000704049886307200DE720E03D48406B1D
:10C4F00000F48070B0B13D48007838B13B48007816
:10C50000012803D03948007802280BD100220121EC
:10C510000C20FEF7D9FD0C20FCF74CFB06460EB1B3
:10C520003046F0E640F2FF502E49886342E0314841
:10C53000007801283ED100202F49087001202F49A2
:10C54000087000202E4908702648C06B40F21A314E
:10C5500008432449C86305FB04F101220398FEF750
:10C56000F7FD2048C06A40F008001E49C862254F08
:10C5700000E07F1E2448006800F4005008B9002F36
:10C58000F7D11FB9FEF7EEFF0420BCE61D4F00E017
:10C590007F1E1B48007820B91748007808B9002F83
:10C5A000F6D10FB90420AEE61348007810B1124856
:10C5B0000078A8E640F2FF500A49886301A8FDF719
:10C5C000D3F8064603E001A8FDF7CEF806463EB9CB
:10C5D0009DF804000728F6D09DF804000628F2D044
:10C5E000304690E600800140FFFF0F005C00002015
:10C5F000600000206400002066000020650000202C
:10C6000067000020FFFF02000004024010B5012176
:10C610004FF0C050FEF7EAF90120FEF7BBF945F2F2
:10C6200078300249088000F06BFA10BDBC6C004005
:10C6300008B5012141F20400FEF7E8F9A020ADF8A9
:10C64000000018208DF8030003208DF802006946D1
:10C650001248FCF739FEA0211048FCF7CBFE002061
:10C660000F4908804FF482704880002088800220A3
:10C67000C880002008814FF4007048810020888124
:10C68000C88106200882074800F064F801210548A7
:10C6900000F046F8FF2000F007F808BD0008014050
:10C6A000A80700200030014070B50546002405E0D1
:10C6B000601CC4B2C82C01DD002070BD02210E48F0
:10C6C00000F03AF80028F3D029460B4800F040F873
:10C6D000002405E0601CC4B2C82C01DD0020ECE79A
:10C6E0000121054800F028F80028F3D0024800F0A6
:10C6F0002CF8C0B2E1E700000030014010B504465C
:10C70000054884810146054800F024F801210348CA
:10C7100000F006F810BD0000A8070020003001401E
:10C7200021B1028842F04002028004E002884FF604
:10C73000BF731A40028070470246002013890B40E5
:10C740000BB1012000E00020704701468889704746
:10C750008181704710B50022028802F441520B8893
:10C760004C8823438C882343CC8823430C89234360
:10C770004C8923438C892343CC8923431A43028069
:10C78000838B4FF2FF74234083830B8A038210BD97
:10C7900010B5502002F07EFD1A490860502002F0CA
:10C7A00079FD19490860502002F074FD17490860AE
:10C7B000072002F06FFD16490860CF2002F06AFDE5
:10C7C00014490860982002F065FD13490860502064
:10C7D00002F060FD114908600A48006870B10A481B
:10C7E000006858B10948006840B10A48006828B19B
:10C7F0000948006810B10846006808B9012010BD5A
:10C800000020FCE774000020700000206C00002075
:10C8100078000020800000208400002068000020B4
:10C8200002460D48806840F001000B4B986000BF45
:10C830000948806800F001000028F9D103E0064BA8
:10C8400010681860121D081EA1F1010399B2F6D1FB
:10C8500001480068704700000030024030B50346D0
:10C860000C461546002207E0184600F008F824F8A8
:10C8700012009B1C501C82B2AA42F5DB30BD01465F
:10C88000088870477047000010B51548006802F02E
:10C89000F3FC1448006802F0EFFC1348006802F053
:10C8A000EBFC7C2002F0F6FC104908604FF440508D
:10C8B00002F0F0FC0E4908604FF4405002F0EAFC30
:10C8C0000C4908600948006828B10948006810B19F
:10C8D0000846006808B9012010BD0020FCE70000F0
:10C8E0006800002080000020840000208C000020D0
:10C8F000940000209800002010B52048007828B946
:10C9000001211F48FCF76BFD012835D101201D498D
:10C91000086000201C49C1F898010220FDF7A4F826
:10C92000FDF7D2FA27E001211548FCF758FD50B970
:10C9300040F2DC5000F05AFE01211148FCF74FFD97
:10C9400008B900F0DDF84FF4967000F04FFEFDF7E7
:10C950009DFA0C48006808B9012000E00020094950
:10C9600008600948D0F8980108B9012000E00020CB
:10C970000449091D0860D6E710BD000090000020A2
:10C9800000080140948121420080214270B54FF49B
:10C99000E77002F07FFC04464FF4E77002F07AFC87
:10C9A00005462846FEF7ECFA88B92046FEF7DEFA7F
:10C9B00021462846FBF7A0FF002810DD284602F09C
:10C9C0005BFC204602F058FCFFF720FE07E02846FB
:10C9D00002F052FC204602F04FFCFFF717FE2846FB
:10C9E00002F04AFC204602F047FC70BD10B500F092
:10C9F00001F810BD0CB5002001900090334800688C
:10CA000040F480303149086000BF3048006800F4CD
:10CA1000003000900198401C0190009818B90198CE
:10CA2000B0F5A06FF1D12948006800F4003010B1D2
:10CA30000120009001E0002000900098012843D1DF
:10CA40002348006840F0100021490860084600684B
:10CA500020F0030008600846006840F0020008600B
:10CA60001A484068194948600846406848600846C6
:10CA7000406840F4806048600846406820F47C10BC
:10CA800048600846406840F4E8104860084600687E
:10CA900040F08070086000BF0C48006800F0007033
:10CAA0000028F9D00948406820F003000749486091
:10CAB0000846406840F00200486000BF03484068F4
:10CAC00000F00C000828F9D10CBD00000010024055
:10CAD00000200240042808D14FF0E021096941F00C
:10CAE00004014FF0E022116107E04FF0E0210969F5
:10CAF00021F004014FF0E0221161704770470000FF
:10CB000001480249086070470400FA050CED00E096
:10CB100010B51348006840F001001149086008464C
:10CB20004068104908400E494860084600680E49B0
:10CB300008400B4908600846006820F4802008601F
:10CB40000846406820F4FE0048604FF41F008860EB
:10CB5000FFF74CFF4FF000600449086010BD000073
:10CB6000001002400000FFF8FFFFF6FE08ED00E0B5
:10CB700000B54FF08040008A00F0010030B14FF660
:10CB8000FE704FF080410882FBF760FF00BD00009F
:10CB900010B51548008800F0010000B34FF6FE7094
:10CBA0001149088011480078002819DD0221104839
:10CBB000FCF715FCA0B90D480078401E0B49087021
:10CBC0000846007858B90B490B480068FBF77DFF11
:10CBD00028B90A48008840F400400849088002E06B
:10CBE00000200249087010BD10080040020000201B
:10CBF000000C01400C0100208C00002000000020EF
:10CC00007CB5002440F225511B4800F0CCF858B305
:10CC10001948001D0088C4B21848007828B321467E
:10CC200017480068FCF70CFC15480068FCF7E7FBA8
:10CC3000D0B9144800688079124909684979114DC2
:10CC4000CDE900102D682B790E4D2D68EA780D4D39
:10CC50002D68A9780B4D2D682888FEF7E5F8074860
:10CC60000078401E0549087004E021460648006827
:10CC7000FCF771FA7CBD00000038014091000020F3
:10CC800084000020780000208000002000B58DB0D6
:10CC900001210846FDF79AFE1D48FCF7FFF81D48E4
:10CCA0000290002003900490059006908020079049
:10CCB0000020089009900A904FF440500B900020FB
:10CCC0000C9002A91248FCF7C0F90122402111483A
:10CCD000001F00F05FF84FF40030FCF7C5F80122A8
:10CCE0000A210B48FCF7A8F90F208DF80400012059
:10CCF0008DF8070000208DF805008DF8060001A8CA
:10CD0000FDF702F800210248FCF7BCF80DB000BDA9
:10CD1000580002400438014010B500200C4908704A
:10CD20000846007820F001000870002240F22551EA
:10CD3000084800F062F808480068FCF7EDF9FFF7D2
:10CD4000A5FF4FF4405105480068FCF74DF910BDB0
:10CD50009C0000200038014080000020940000204A
:10CD600000BF0549098801F040010029F9D00249B6
:10CD7000091D0880704700000038014021B18289F8
:10CD800042F40052828104E082894DF6FF731A401A
:10CD9000828170471AB1838A0B43838202E0838ABF
:10CDA0008B438382704770B5024600240023002520
:10CDB000002040F66A16B14200D100BFC1F342150F
:10CDC00001F01F03012606FA03F3012D02D1968913
:10CDD000334006E0022D02D1168A334001E0968AE4
:10CDE00033400C12012606FA04F41688344013B1BD
:10CDF0000CB1012000E0002070BDF0B50346002416
:10CE000000260025002040F66A17B94200D100BF75
:10CE10001846C1F3421401F01F06012707FA06F570
:10CE2000012C01D10C3004E0022C01D1103000E0C3
:10CE300014301AB107682F43076002E00768AF4358
:10CE40000760F0BD2DE9F04786B005460E46002488
:10CE5000A24600BFA1460027B08900B100BF2F46FF
:10CE60002C8A4CF6FF700440F08804432C82AC8975
:10CE70004EF6F3100440B0883189084371890843A5
:10CE80000443AC81AC8A4FF6FF400440B0890443B0
:10CE9000AC8201A8FDF7CAFD1F48874202D1DDF828
:10CEA00010A001E0DDF80CA0A88900F4004040B11A
:10CEB0000AEBCA0000EB0A1031684900B0FBF1F838
:10CEC00007E00AEBCA0000EB0A1031688900B0FBEA
:10CED000F1F86420B8FBF0F004012009642101FBA3
:10CEE0001089A88900F4004040B1322000EBC9004D
:10CEF000B0FBF1F000F00700044308E0322000EB43
:10CF000009106421B0FBF1F000F00F0004432C8104
:10CF100006B0BDE8F08700000038014010B586B0CB
:10CF20000446012144F20400FDF770FD4FF4007047
:10CF3000ADF8140003208DF8160018208DF81700A6
:10CF400005A91C48FCF7C0F94FF48060ADF8140047
:10CF500004208DF8170005A91648FCF7B5F925201F
:10CF60008DF8000003208DF801008DF802000120EB
:10CF70008DF803006846FCF7C7FE01940020ADF869
:10CF80000800ADF80A00ADF80C00ADF810000C2058
:10CF9000ADF80E0001A90848FFF754FF012240F246
:10CFA00025510548FFF729FF01210348FFF7E6FE59
:10CFB00006B010BD000801400038014000B502462F
:10CFC0000B4603E01078FFF7CBFE521C181EA3F1AE
:10CFD00001018BB2F6D100BD00BFFEE710B586B0EF
:10CFE0000024002002900390049005901120FCF78B
:10CFF0003BFDFDF79FFF0020009003460C22092116
:10D0000001904FF4FC60FDF70FFFFDF793FF40F236
:10D01000DC5000F0EBFA38E01E48807800901D48A4
:10D02000437802781CA102A8FBF71EF901200090AA
:10D03000102302AA002101900846FDF727FA15489F
:10D0400040780F281BDB04F0800040B944F08004D6
:10D0500017480068FCF76DFA052016490870154856
:10D06000007860B901214FF0C050FDF7BFFC0120EE
:10D07000FDF790FC41F234200F49088006E0FFF7ED
:10D080003BFC4FF4967000F0B1FAC5E700BF06B064
:10D0900010BD000024010020202020202530326413
:10D0A0003A253032643A25303264202020200000B6
:10D0B0008400002091000020B86C004030380A281D
:10D0C00001D20120704700207047014600BF704721
:10D0D00070B504460D4600202071401EE0622946CE
:10D0E000204602F0AFF808B1032070BD94F82E126C
:10D0F00094F82F0241EA00204AF65521884201D0D7
:10D100000220F2E794F86900010694F8680041EA09
:10D11000004194F8670041EA002094F86610084343
:10D1200020F07F400D49884201D10020DDE794F8CE
:10D130008500010694F8840041EA004194F88300D8
:10D1400041EA002094F88210084320F07F40034910
:10D15000884201D10020C8E70120C6E746415400BB
:10D16000024600E0521C107810B110788842F9D1C4
:10D170001078704770B503460D46586A021D680A5C
:10D180001E68B678B0FBF6F400BF02CA09B90020E9
:10D1900070BD8C4200D202E0641A121DF5E700BF98
:10D1A00010682044F4E70246891E5069801E8842B8
:10D1B00001D8002070479378906A01FB0300F9E7DB
:10D1C0002DE9F04705460C46207820F04000401E2F
:10D1D00000EB800101EBC00600274FF0010800BF03
:10D1E0001A48C05D205C1949C95D2144497840EA6C
:10D1F0000129B8F1000F10D0484601F08BF98046A4
:10D20000FF2E07D23146761C35F8110001F082F965
:10D21000404508D00020BDE8F0874FF6FF708145FB
:10D2200001D00020F7E7781C07460D28D8D32078D6
:10D2300000F0400038B1B8F1000F04D035F8160006
:10D2400008B10020E7E70120E5E700003C560108AF
:10D250000146002002E04910421CD0B20129FAD157
:10D2600070472DE9F04704468946B9F1000F06D111
:10D27000E76817B16069B84215D8012713E049463D
:10D28000204601F01BFC0646022E02D20120BDE81A
:10D29000F087701C08B93046F9E76069B04201D9DF
:10D2A0003046F4E74F463D4600BF6D1C6069A8421A
:10D2B00004D80225BD4201D90020E8E729462046CE
:10D2C00001F0FCFB064606B909E0701C08B1012E0E
:10D2D00001D13046DBE7BD42E7D10020D7E700BFF0
:10D2E0006FF070422946204601F0F9FF8046B8F100
:10D2F000000F08D1B9F1000F05D02A464946204653
:10D3000001F0EDFF8046B8F1000F0BD1E560206918
:10D31000401C78B12069401E2061607940F0010016
:10D32000607107E0B8F1010F02D14FF0FF3000E06B
:10D33000012005462846AAE72DE9F34F83B0814630
:10D3400004980068019002E00198401C0190019847
:10D3500000782F28F8D0019800785C28F4D0D9F80C
:10D360001CA000252F4600BF38467F1C01990C5C8D
:10D37000202C03DB2F2C01D05C2C00D132E0FF2DC0
:10D3800003D3062005B0BDE8F08FE4B2812C13DB97
:10D39000E0B2FE2810DC38467F1C01990E5C06EBDB
:10D3A000042084B2402E01DB7E2E05DD802E01DBC1
:10D3B000FE2E01DD0620E5E70121204601F099F867
:10D3C00004460CB90620DDE7802C06DA214671A060
:10D3D000FFF7C6FE08B10620D4E728466D1C2AF8E0
:10D3E0001040C1E700BF0198C11904980160202CCA
:10D3F00001DA042000E00020804608E0681E3AF8C8
:10D400001040202C02D02E2C00D002E06D1E002DEA
:10D41000F4D100BF0DB90620B4E700202AF81500AA
:10D420000B222021D9F8180001F002FF002700E0AC
:10D430007F1C3AF817002028FAD03AF817002E2857
:10D44000F6D00FB148F0030800E06D1E25B1681E4C
:10D450003AF810002E28F8D10020064602904FF02E
:10D46000080B00BF38467F1C3AF8104004B963E04F
:10D47000202C03D02E2C04D1AF4202D048F0030858
:10D48000F0E70298584501D2AF4214D1BBF10B0F1F
:10D4900002D148F003084FE0AF4201D048F0030842
:10D4A000AF4200D948E02F46082002904FF00B0B06
:10D4B000B006060ED6E7802C09DB204601F02AF8DC
:10D4C0000021009001F015F8044648F00208FF2CF6
:10D4D00011DDABF101000299884204D848F003083D
:10D4E000CDF808B0BEE72212D9F818300298411CD6
:10D4F00002911A5419E024B1214629A0FFF730FE09
:10D5000018B15F2448F003080FE0412C04DB5A2CCB
:10D5100002DC46F0020608E0612C06DB7A2C04DC13
:10D5200046F00106A4F1200084B2D9F81830029820
:10D53000411C02911C5495E700BFD9F818000078EF
:10D54000E52803D10520D9F818100870BBF1080FA1
:10D5500001D1B006060E06F00C000C2803D006F030
:10D560000300032801D148F0020808F0020058B96E
:10D5700006F00300012801D148F0100806F00C0065
:10D58000042801D148F00808D9F8180080F80B8069
:10D590000020F7E6222A3A3C3E3F7C7F0000000054
:10D5A0002B2C3B3D5B5D000010B56FF00400FFF7D6
:10D5B00091FA0A4800680A49B0FBF1F0094908707D
:10D5C0000846007800EB4001C1EBC0104FF6FF7138
:10D5D00001EAC0000449088010BD0000A00000203E
:10D5E00000127A00C8000020CA0000200146114A3B
:10D5F00012884A434FF0E0235A6100229A611A468A
:10D60000126942F001021A6100BF4FF0E022106976
:10D6100000F001021AB100F48032002AF5D04FF078
:10D62000E022126922F001024FF0E0231A61002289
:10D630009A617047CA0000202DE9F04104460E4669
:10D640000021204600F0B7F90546EDB9002700BFDC
:10D650002169206801F0F6FD054605B113E0606917
:10D660000078E52802D06069007820B9781C074668
:10D67000B04201D107E000270121204600F07FF8E9
:10D680000546002DE4D000BF042D00D10725284613
:10D69000BDE8F0812DE9F04704460021204600F066
:10D6A0008AF9074617B13846BDE8F0874FF0FF0901
:10D6B000CA464FF6FF70208400BF2169206801F040
:10D6C000C1FD074607B157E065692E780EB90427FA
:10D6D00052E0E87A00F03F08E52E05D008F0080097
:10D6E00040B1B8F10F0F05D04FF0FF094FF6FF70B2
:10D6F00020843AE0B8F10F0F1CD1E06978B306F04E
:10D70000400030B195F80DA026F04006B146E08803
:10D7100020844E450AD1687B504507D12946E069EF
:10D72000FFF74EFD10B1A9F1010000E0FF2000F06D
:10D73000FF091AE0B9F1000F05D1284601F0AEFE4D
:10D74000504500D118E0A069C07A00F0010038B956
:10D750000B222846A16901F0BDFC08B90CE004E0E9
:10D760004FF0FF094FF6FF7020840021204600F0A3
:10D7700006F80746002FA0D000BF384694E72DE9F1
:10D78000F04104468846E088461CB0B208B12069E2
:10D7900010B90420BDE8F08106F00F0000286BD11D
:10D7A0002069401C2061E06828B920680089B042E7
:10D7B00062D80420EEE720688078401E00EA161048
:10D7C000002859D1E168206801F078F90546012D5B
:10D7D00001D80220DEE7681C08B90120DAE72068DA
:10D7E0004069A84242D8B8F1000F01D10420D1E726
:10D7F000E1682068FFF735FD05460DB90720C9E748
:10D80000012D01D10220C5E7681C08B90120C1E73C
:10D81000206801F0B7FE08B10120BBE7216801F1E3
:10D8200030004FF40072002101F002FD294620680B
:10D83000FFF7B9FC2168C86200270EE001202168CB
:10D840000871206801F09EFE08B10120A2E720685F
:10D85000C06A401C2168C8627F1C20688078B8427A
:10D86000ECD82068C06AC01B2168C862E560294600
:10D870002068FFF798FC2061E6802068303006F0D1
:10D880000F0100EB41106061002083E72DE9FE4F9E
:10D890000446D4F81880D4F81C900C2241466846FF
:10D8A00001F02BFC00BF9DF80B0000F0010020B33D
:10D8B000002088F80B00E06101260CE033464A4660
:10D8C0006946404601F094F82046FFF7E3FE05461E
:10D8D00005B102E0761C642EF0D300BF642E02D1A5
:10D8E0000720BDE8FE8F042D01D02846F9E79DF8FA
:10D8F0000B0088F80B00C4F81C909DF80B0000F09A
:10D90000020060B1002600E0761C39F816000028FD
:10D91000FAD106F119000D21B0FBF1F700E0012763
:10D9200039462046FFF788FE054645BB781E071E90
:10D9300025D0E088C11B204600F03DF80546F5B92A
:10D94000A06901F0ABFD824600BF2169206801F0AB
:10D9500079FC054605B111E0FAB253466169E06908
:10D9600000F0BEFF01202168087100212046FFF76A
:10D9700006FF054615B9781E071EE6D100BFC5B9DA
:10D980002169206801F05EFC054695B9202200213E
:10D99000606901F04DFC0B22D4E9050101F0ADFBFB
:10D9A000A069C07A00F0180061690873012021683D
:10D9B0000871284695E72DE9F04104460E46E680B9
:10D9C000A568012D03D020684069A84202D8022032
:10D9D000BDE8F0812DB920680078032801D12068C6
:10D9E000456A45B920680089B04201D80220EFE7B6
:10D9F0002068476A1EE0206880784FEA001812E02D
:10DA00002946206801F05AF80546681C08B901202B
:10DA1000DEE7022D03D320684069A84201D8022026
:10DA2000D6E7A6EB08064645EAD229462068FFF766
:10DA3000BAFB0746E5600FB90220C9E707EB1610ED
:10DA400020612068303006F00F0100EB411060616A
:10DA50000020BDE770B5044600251CB9FDF782FD26
:10DA6000054601E0012500BF00BF0DB1012070BDDA
:10DA70000020FCE72DE9F04706468946154646BBDF
:10DA8000B9F1000F09D0B9F1010F13D0B9F1020FAC
:10DA900005D0B9F1030F19D106E0002418E04FF4C6
:10DAA00000702860002413E00C48B0F85000288073
:10DAB00000240DE009484FF400720023D0E91271F0
:10DAC0003846FAF7ACFB2860002401E0042400BFCC
:10DAD00000E001242046BDE8F0870000500100204E
